{
	"data": {
		"bytecode": {
			"linkReferences": {},
			"object": "60806040526000805460ff191690556005805460a060020a60ff02191690553480156200002b57600080fd5b506200003f64010000000062000058810204565b620000526401000000006200013d810204565b62000406565b60005460ff1615620000cb57604080517f08c379a000000000000000000000000000000000000000000000000000000000815260206004820152601360248201527f616c726561647920696e697469616c697a656400000000000000000000000000604482015290519081900360640190fd5b6004805433600160a060020a03199182168117909255600580548216905560068054821690556000600281905560088054831684179055600d55600e8054821683179055600f805490911690911790556200012e64010000000062000294810204565b6000805460ff19166001179055565b600454600160a060020a03163314620001b757604080517f08c379a000000000000000000000000000000000000000000000000000000000815260206004820152600960248201527f6f6e6c794f776e65720000000000000000000000000000000000000000000000604482015290519081900360640190fd5b60055474010000000000000000000000000000000000000000900460ff16156200024257604080517f08c379a000000000000000000000000000000000000000000000000000000000815260206004820152600e60248201527f616c726561647920706175736564000000000000000000000000000000000000604482015290519081900360640190fd5b6005805460a060020a60ff021916740100000000000000000000000000000000000000001790556040517f6985a02210a168e66602d3235cb6db0e70f92b3ba4d376a33c0f3d9434bff62590600090a1565b604080517f454950373132446f6d61696e28737472696e67206e616d652c6164647265737381527f20766572696679696e67436f6e7472616374290000000000000000000000000060208083019190915282519182900360330182208284018452600a8084527f5061786f7320476f6c640000000000000000000000000000000000000000000092840192835293519093909182918083835b602083106200034e5780518252601f1990920191602091820191016200032d565b51815160209384036101000a60001901801990921691161790526040805192909401829003822082820197909752818401969096523060608083019190915283518083039091018152608090910192839052805190959294508493509185019190508083835b60208310620003d55780518252601f199092019160209182019101620003b4565b5181516020939093036101000a60001901801990911692169190911790526040519201829003909120600c55505050565b61394880620004166000396000f3006080604052600436106102455763ffffffff7c010000000000000000000000000000000000000000000000000000000060003504166303acb448811461024a57806306fdde031461026157806308abdeba146102eb578063095ea7b3146103005780630a91b601146103385780630abe469a1461036957806318160ddd146103935780631b670561146103a857806321ab11f71461058c57806323b872dd146106055780632ff791611461062f578063313ce567146106445780633ed4c6781461066f5780633f4ba83a1461069057806345596e2e146106a557806345c8b1a6146106bd57806346904840146106de5780634e71e0c8146106f357806352875bc31461070857806357526b3f146107295780635c975abb1461073e5780636999b3771461075357806370a08231146107685780638129fc1c146107895780638456cb591461079e57806389f72c21146107b35780638ceed9cb146107d45780638d1fdf2f146107f55780638da5cb5b1461081657806395d89b411461082b578063978bbdb91461084057806397d60d561461085557806398e52f9a14610876578063a7d87ed01461088e578063a9059cbb146108af578063ac69275c146108d3578063b5ed298a146108f4578063b921e16314610915578063c4f62fee1461092d578063cc0f178614610942578063d153b60c14610957578063d990c6181461096c578063dd62ed3e1461098d578063e2f72f03146109b4578063e306f779146109d5578063e5839836146109ea578063e74b981b14610a0b578063e7ba101214610a2c575b600080fd5b34801561025657600080fd5b5061025f610a41565b005b34801561026d57600080fd5b50610276610b92565b6040805160208082528351818301528351919283929083019185019080838360005b838110156102b0578181015183820152602001610298565b50505050905090810190601f1680156102dd5780820380516001836020036101000a031916815260200191505b509250505060405180910390f35b3480156102f757600080fd5b5061025f610bc9565b34801561030c57600080fd5b50610324600160a060020a0360043516602435610ca3565b604080519115158252519081900360200190f35b34801561034457600080fd5b5061034d610dda565b60408051600160a060020a039092168252519081900360200190f35b34801561037557600080fd5b50610381600435610de9565b60408051918252519081900360200190f35b34801561039f57600080fd5b50610381610e2e565b3480156103b457600080fd5b506040805160206004803580820135838102808601850190965280855261032495369593946024949385019291829185019084908082843750506040805187358901803560208181028481018201909552818452989b9a998901989297509082019550935083925085019084908082843750506040805187358901803560208181028481018201909552818452989b9a998901989297509082019550935083925085019084908082843750506040805187358901803560208181028481018201909552818452989b9a998901989297509082019550935083925085019084908082843750506040805187358901803560208181028481018201909552818452989b9a998901989297509082019550935083925085019084908082843750506040805187358901803560208181028481018201909552818452989b9a998901989297509082019550935083925085019084908082843750506040805187358901803560208181028481018201909552818452989b9a998901989297509082019550935083925085019084908082843750506040805187358901803560208181028481018201909552818452989b9a998901989297509082019550935083925085019084908082843750949750610e349650505050505050565b34801561059857600080fd5b506040805160206004803580820135601f810184900484028501840190955284845261032494369492936024939284019190819084018382808284375094975050600160a060020a0385351695505050602083013592604081013592506060810135915060800135611071565b34801561061157600080fd5b50610324600160a060020a036004358116906024351660443561114d565b34801561063b57600080fd5b5061025f6113fb565b34801561065057600080fd5b50610659611569565b6040805160ff9092168252519081900360200190f35b34801561067b57600080fd5b5061025f600160a060020a036004351661156e565b34801561069c57600080fd5b5061025f6116c5565b3480156106b157600080fd5b5061025f6004356117c1565b3480156106c957600080fd5b5061025f600160a060020a03600435166118bb565b3480156106ea57600080fd5b5061034d6119d8565b3480156106ff57600080fd5b5061025f6119e7565b34801561071457600080fd5b5061025f600160a060020a0360043516611aad565b34801561073557600080fd5b50610381611c08565b34801561074a57600080fd5b50610324611c0f565b34801561075f57600080fd5b5061034d611c1f565b34801561077457600080fd5b50610381600160a060020a0360043516611c2e565b34801561079557600080fd5b5061025f611c49565b3480156107aa57600080fd5b5061025f611d0b565b3480156107bf57600080fd5b50610381600160a060020a0360043516611e0c565b3480156107e057600080fd5b5061025f600160a060020a0360043516611e27565b34801561080157600080fd5b5061025f600160a060020a0360043516611f22565b34801561082257600080fd5b5061034d612041565b34801561083757600080fd5b50610276612050565b34801561084c57600080fd5b50610381612087565b34801561086157600080fd5b5061025f600160a060020a036004351661208d565b34801561088257600080fd5b50610324600435612156565b34801561089a57600080fd5b50610324600160a060020a0360043516612305565b3480156108bb57600080fd5b50610324600160a060020a0360043516602435612323565b3480156108df57600080fd5b5061025f600160a060020a03600435166124cf565b34801561090057600080fd5b5061025f600160a060020a03600435166125ee565b34801561092157600080fd5b5061032460043561277c565b34801561093957600080fd5b5061034d6128b7565b34801561094e57600080fd5b506106596128c6565b34801561096357600080fd5b5061034d6128cb565b34801561097857600080fd5b5061025f600160a060020a03600435166128da565b34801561099957600080fd5b50610381600160a060020a03600435811690602435166129f7565b3480156109c057600080fd5b5061025f600160a060020a0360043516612a22565b3480156109e157600080fd5b50610381612bd3565b3480156109f657600080fd5b50610324600160a060020a0360043516612bd9565b348015610a1757600080fd5b5061025f600160a060020a0360043516612bf7565b348015610a3857600080fd5b5061034d612d37565b600554600090600160a060020a0316331480610a675750600454600160a060020a031633145b1515610abd576040805160e560020a62461bcd02815260206004820152601b60248201527f6f6e6c792070726f706f7365644f776e6572206f72206f776e65720000000000604482015290519081900360640190fd5b600554600160a060020a03161515610b45576040805160e560020a62461bcd02815260206004820152603b60248201527f63616e206f6e6c792064697372656761726420612070726f706f736564206f7760448201527f6e65722074686174207761732070726576696f75736c79207365740000000000606482015290519081900360840190fd5b5060058054600160a060020a03198116909155604051600160a060020a039091169081907f24f4590b0077912a4db89e7430de7986175c27bede1b47ee039e3b421c2e798e90600090a250565b60408051808201909152600a81527f5061786f7320476f6c6400000000000000000000000000000000000000000000602082015281565b600454600090600160a060020a03163314610c1c576040805160e560020a62461bcd02815260206004820152600960248201526000805160206138fd833981519152604482015290519081900360640190fd5b5030600090815260016020526040808220805490839055600454600160a060020a03168352912054610c54908263ffffffff612d4616565b60048054600160a060020a039081166000908152600160209081526040918290209490945591548251858152925191169230926000805160206138dd833981519152929081900390910190a350565b60055460009060a060020a900460ff1615610cf6576040805160e560020a62461bcd02815260206004820152600d60248201526000805160206138bd833981519152604482015290519081900360640190fd5b600160a060020a03831660009081526007602052604090205460ff16158015610d2f57503360009081526007602052604090205460ff16155b1515610d73576040805160e560020a62461bcd02815260206004820152600e602482015260008051602061389d833981519152604482015290519081900360640190fd5b336000818152600360209081526040808320600160a060020a03881680855290835292819020869055805186815290519293927f8c5be1e5ebec7d5bd14f71427d1e84f3dd0314c0f7b2291e5b200ac8c7c3b925929181900390910190a350600192915050565b600654600160a060020a031681565b6000600d5460001415610dfe57506000610e29565b610e26620f4240610e1a600d5485612d6390919063ffffffff16565b9063ffffffff612d9116565b90505b919050565b60025490565b60008088518a51148015610e49575087518a51145b8015610e56575086518a51145b8015610e63575085518a51145b1515610eb9576040805160e560020a62461bcd02815260206004820152600f60248201527f6c656e677468206d69736d617463680000000000000000000000000000000000604482015290519081900360640190fd5b84518a51148015610ecb575083518a51145b8015610ed8575082518a51145b1515610f2e576040805160e560020a62461bcd02815260206004820152600f60248201527f6c656e677468206d69736d617463680000000000000000000000000000000000604482015290519081900360640190fd5b5060005b8951811015611061576110038a82815181101515610f4c57fe5b906020019060200201518a83815181101515610f6457fe5b906020019060200201518a84815181101515610f7c57fe5b906020019060200201518a85815181101515610f9457fe5b906020019060200201518a86815181101515610fac57fe5b906020019060200201518a87815181101515610fc457fe5b906020019060200201518a88815181101515610fdc57fe5b906020019060200201518a89815181101515610ff457fe5b90602001906020020151612db4565b1515611059576040805160e560020a62461bcd02815260206004820152600f60248201527f6661696c6564207472616e736665720000000000000000000000000000000000604482015290519081900360640190fd5b600101610f32565b5060019998505050505050505050565b600080600080895160411415156110d2576040805160e560020a62461bcd02815260206004820152601f60248201527f7369676e61747572652073686f756c642068617665206c656e67746820363500604482015290519081900360640190fd5b50505060208701516040880151606089015160001a6110f78383838c8c8c8c8c612db4565b1515611061576040805160e560020a62461bcd02815260206004820152600f60248201527f6661696c6564207472616e736665720000000000000000000000000000000000604482015290519081900360640190fd5b60055460009060a060020a900460ff16156111a0576040805160e560020a62461bcd02815260206004820152600d60248201526000805160206138bd833981519152604482015290519081900360640190fd5b600160a060020a0383161515611200576040805160e560020a62461bcd02815260206004820152601f60248201527f63616e6e6f74207472616e7366657220746f2061646472657373207a65726f00604482015290519081900360640190fd5b600160a060020a03831660009081526007602052604090205460ff161580156112425750600160a060020a03841660009081526007602052604090205460ff16155b801561125e57503360009081526007602052604090205460ff16155b15156112a2576040805160e560020a62461bcd02815260206004820152600e602482015260008051602061389d833981519152604482015290519081900360640190fd5b600160a060020a038416600090815260016020526040902054821115611312576040805160e560020a62461bcd02815260206004820152601260248201527f696e73756666696369656e742066756e64730000000000000000000000000000604482015290519081900360640190fd5b600160a060020a038416600090815260036020908152604080832033845290915290205482111561138d576040805160e560020a62461bcd02815260206004820152601660248201527f696e73756666696369656e7420616c6c6f77616e636500000000000000000000604482015290519081900360640190fd5b600160a060020a03841660009081526003602090815260408083203384529091529020546113c1908363ffffffff6136ee16565b600160a060020a03851660009081526003602090815260408083203384529091529020556113f0848484613705565b506001949350505050565b604080517f454950373132446f6d61696e28737472696e67206e616d652c6164647265737381527f20766572696679696e67436f6e7472616374290000000000000000000000000060208083019190915282519182900360330182208284018452600a8084527f5061786f7320476f6c640000000000000000000000000000000000000000000092840192835293519093909182918083835b602083106114b35780518252601f199092019160209182019101611494565b51815160209384036101000a60001901801990921691161790526040805192909401829003822082820197909752818401969096523060608083019190915283518083039091018152608090910192839052805190959294508493509185019190508083835b602083106115385780518252601f199092019160209182019101611519565b5181516020939093036101000a60001901801990911692169190911790526040519201829003909120600c55505050565b601281565b600e54600090600160a060020a03163314806115945750600454600160a060020a031633145b15156115ea576040805160e560020a62461bcd02815260206004820152601b60248201527f6f6e6c7920466565436f6e74726f6c6c6572206f72204f776e65720000000000604482015290519081900360640190fd5b600160a060020a0382161515611670576040805160e560020a62461bcd02815260206004820152602960248201527f63616e6e6f74207365742066656520636f6e74726f6c6c657220746f2061646460448201527f72657373207a65726f0000000000000000000000000000000000000000000000606482015290519081900360840190fd5b50600e8054600160a060020a03838116600160a060020a03198316179283905560405191811692169082907f9f67a87fdd653dfcdb36c8e3f851b597fb84328e3e90b118af01dc93a94e2eb590600090a35050565b600454600160a060020a03163314611715576040805160e560020a62461bcd02815260206004820152600960248201526000805160206138fd833981519152604482015290519081900360640190fd5b60055460a060020a900460ff161515611778576040805160e560020a62461bcd02815260206004820152601060248201527f616c726561647920756e70617573656400000000000000000000000000000000604482015290519081900360640190fd5b6005805474ff0000000000000000000000000000000000000000191690556040517f7805862f689e2f13df9f062ff482ad3ad112aca9e0847911ed832e158c525b3390600090a1565b600e54600090600160a060020a03163314611826576040805160e560020a62461bcd02815260206004820152601260248201527f6f6e6c7920466565436f6e74726f6c6c65720000000000000000000000000000604482015290519081900360640190fd5b620f4240821115611881576040805160e560020a62461bcd02815260206004820152601e60248201527f63616e6e6f74207365742066656520726174652061626f766520313030250000604482015290519081900360640190fd5b50600d805490829055604051829082907f959ec4191db1bd972bfbc60dc7d735d4cfb897ca3fd297f4ebd6ee918feb84d490600090a35050565b600654600160a060020a0316331461191d576040805160e560020a62461bcd02815260206004820152601760248201527f6f6e6c79417373657450726f74656374696f6e526f6c65000000000000000000604482015290519081900360640190fd5b600160a060020a03811660009081526007602052604090205460ff16151561198f576040805160e560020a62461bcd02815260206004820152601860248201527f6164647265737320616c726561647920756e66726f7a656e0000000000000000604482015290519081900360640190fd5b600160a060020a038116600081815260076020526040808220805460ff19169055517fc3776b472ebf54114339eec9e4dc924e7ce307a97f5c1ee72b6d474e6e5e8b7c9190a250565b600f54600160a060020a031681565b600554600090600160a060020a03163314611a4c576040805160e560020a62461bcd02815260206004820152601160248201527f6f6e6c7950726f706f7365644f776e6572000000000000000000000000000000604482015290519081900360640190fd5b506004805460058054600160a060020a0319808416600160a060020a038381169190911795869055911690915560405191811692169082907f8be0079c531659141344cd1fd0a4f28419497f9722a3daafe3b4186f6b6457e090600090a350565b600854600160a060020a0316331480611ad05750600454600160a060020a031633145b1515611b26576040805160e560020a62461bcd02815260206004820152601e60248201527f6f6e6c7920537570706c79436f6e74726f6c6c6572206f72204f776e65720000604482015290519081900360640190fd5b600160a060020a0381161515611bac576040805160e560020a62461bcd02815260206004820152602c60248201527f63616e6e6f742073657420737570706c7920636f6e74726f6c6c657220746f2060448201527f61646472657373207a65726f0000000000000000000000000000000000000000606482015290519081900360840190fd5b600854604051600160a060020a038084169216907f40d53b0b666e4424f29d55244e7e171a1dc332acc11d04ed4abd884629d8cc9790600090a360088054600160a060020a031916600160a060020a0392909216919091179055565b620f424081565b60055460a060020a900460ff1681565b600e54600160a060020a031681565b600160a060020a031660009081526001602052604090205490565b60005460ff1615611ca4576040805160e560020a62461bcd02815260206004820152601360248201527f616c726561647920696e697469616c697a656400000000000000000000000000604482015290519081900360640190fd5b6004805433600160a060020a03199182168117909255600580548216905560068054821690556000600281905560088054831684179055600d55600e8054821683179055600f80549091169091179055611cfc6113fb565b6000805460ff19166001179055565b600454600160a060020a03163314611d5b576040805160e560020a62461bcd02815260206004820152600960248201526000805160206138fd833981519152604482015290519081900360640190fd5b60055460a060020a900460ff1615611dbd576040805160e560020a62461bcd02815260206004820152600e60248201527f616c726561647920706175736564000000000000000000000000000000000000604482015290519081900360640190fd5b6005805474ff0000000000000000000000000000000000000000191660a060020a1790556040517f6985a02210a168e66602d3235cb6db0e70f92b3ba4d376a33c0f3d9434bff62590600090a1565b600160a060020a03166000908152600b602052604090205490565b600654600160a060020a0316331480611e4a5750600454600160a060020a031633145b1515611ec6576040805160e560020a62461bcd02815260206004820152602160248201527f6f6e6c7920617373657450726f74656374696f6e526f6c65206f72204f776e6560448201527f7200000000000000000000000000000000000000000000000000000000000000606482015290519081900360840190fd5b600654604051600160a060020a038084169216907fd0c36a0ac0fe0d375386bd568fa2947a2dae7523a0a0cfdab20b7532a105bd1b90600090a360068054600160a060020a031916600160a060020a0392909216919091179055565b600654600160a060020a03163314611f84576040805160e560020a62461bcd02815260206004820152601760248201527f6f6e6c79417373657450726f74656374696f6e526f6c65000000000000000000604482015290519081900360640190fd5b600160a060020a03811660009081526007602052604090205460ff1615611ff5576040805160e560020a62461bcd02815260206004820152601660248201527f6164647265737320616c72656164792066726f7a656e00000000000000000000604482015290519081900360640190fd5b600160a060020a038116600081815260076020526040808220805460ff19166001179055517f90811a8edd3b3c17eeaefffc17f639cc69145d41a359c9843994dc25382036909190a250565b600454600160a060020a031681565b60408051808201909152600481527f5041584700000000000000000000000000000000000000000000000000000000602082015281565b600d5481565b600954600160a060020a03163314806120b05750600454600160a060020a031633145b1515612106576040805160e560020a62461bcd02815260206004820152601960248201527f6f6e6c792057686974656c6973746572206f72204f776e657200000000000000604482015290519081900360640190fd5b60098054600160a060020a031916600160a060020a0383811691821792839055604051919216907f54e20b07412504aee4d17519747ae2f01b9924f7f30059793fe5576c4220a0c390600090a350565b600854600090600160a060020a031633146121bb576040805160e560020a62461bcd02815260206004820152601460248201527f6f6e6c79537570706c79436f6e74726f6c6c6572000000000000000000000000604482015290519081900360640190fd5b600854600160a060020a031660009081526001602052604090205482111561222d576040805160e560020a62461bcd02815260206004820152601160248201527f6e6f7420656e6f75676820737570706c79000000000000000000000000000000604482015290519081900360640190fd5b600854600160a060020a0316600090815260016020526040902054612258908363ffffffff6136ee16565b600854600160a060020a0316600090815260016020526040902055600254612286908363ffffffff6136ee16565b600255600854604080518481529051600160a060020a03909216917f1b7e18241beced0d7f41fbab1ea8ed468732edbcb74ec4420151654ca71c8a639181900360200190a2600854604080518481529051600092600160a060020a0316916000805160206138dd833981519152919081900360200190a3506001919050565b600160a060020a03166000908152600a602052604090205460ff1690565b60055460009060a060020a900460ff1615612376576040805160e560020a62461bcd02815260206004820152600d60248201526000805160206138bd833981519152604482015290519081900360640190fd5b600160a060020a03831615156123d6576040805160e560020a62461bcd02815260206004820152601f60248201527f63616e6e6f74207472616e7366657220746f2061646472657373207a65726f00604482015290519081900360640190fd5b600160a060020a03831660009081526007602052604090205460ff1615801561240f57503360009081526007602052604090205460ff16155b1515612453576040805160e560020a62461bcd02815260206004820152600e602482015260008051602061389d833981519152604482015290519081900360640190fd5b336000908152600160205260409020548211156124ba576040805160e560020a62461bcd02815260206004820152601260248201527f696e73756666696369656e742066756e64730000000000000000000000000000604482015290519081900360640190fd5b6124c5338484613705565b5060019392505050565b600954600160a060020a03163314612531576040805160e560020a62461bcd02815260206004820152601b60248201527f6f6e6c794265746144656c656761746557686974656c69737465720000000000604482015290519081900360640190fd5b600160a060020a0381166000908152600a602052604090205460ff16156125a2576040805160e560020a62461bcd02815260206004820152601c60248201527f64656c656761746520616c72656164792077686974656c697374656400000000604482015290519081900360640190fd5b600160a060020a0381166000818152600a6020526040808220805460ff19166001179055517f8a22e0d8ecb02260464e9a55b7d82b17482735ae1f765de59dee573dfec5b36d9190a250565b600454600160a060020a0316331461263e576040805160e560020a62461bcd02815260206004820152600960248201526000805160206138fd833981519152604482015290519081900360640190fd5b600160a060020a03811615156126c4576040805160e560020a62461bcd02815260206004820152602960248201527f63616e6e6f74207472616e73666572206f776e65727368697020746f2061646460448201527f72657373207a65726f0000000000000000000000000000000000000000000000606482015290519081900360840190fd5b33600160a060020a0382161415612725576040805160e560020a62461bcd02815260206004820152601760248201527f63616c6c657220616c7265616479206973206f776e6572000000000000000000604482015290519081900360640190fd5b60058054600160a060020a031916600160a060020a038381169190911791829055600454604051928216929116907ff4e75b79500ab730f8a026ed3cba6d55331bcb64c9e9f60c548e371356e5e3c090600090a350565b600854600090600160a060020a031633146127e1576040805160e560020a62461bcd02815260206004820152601460248201527f6f6e6c79537570706c79436f6e74726f6c6c6572000000000000000000000000604482015290519081900360640190fd5b6002546127f4908363ffffffff612d4616565b600255600854600160a060020a0316600090815260016020526040902054612822908363ffffffff612d4616565b60088054600160a060020a03908116600090815260016020908152604091829020949094559154825186815292519116927ff5c174d57843e57fea3c649fdde37f015ef08750759cbee88060390566a98797928290030190a2600854604080518481529051600160a060020a03909216916000916000805160206138dd833981519152919081900360200190a3506001919050565b600954600160a060020a031681565b600681565b600554600160a060020a031681565b600954600160a060020a0316331461293c576040805160e560020a62461bcd02815260206004820152601b60248201527f6f6e6c794265746144656c656761746557686974656c69737465720000000000604482015290519081900360640190fd5b600160a060020a0381166000908152600a602052604090205460ff1615156129ae576040805160e560020a62461bcd02815260206004820152601860248201527f64656c6567617465206e6f742077686974656c69737465640000000000000000604482015290519081900360640190fd5b600160a060020a0381166000818152600a6020526040808220805460ff19169055517f12acb305bec2ecc1e4568decc9c8e0423749ceb6ae249eaef4ef375ec174a49c9190a250565b600160a060020a03918216600090815260036020908152604080832093909416825291909152205490565b600654600090600160a060020a03163314612a87576040805160e560020a62461bcd02815260206004820152601760248201527f6f6e6c79417373657450726f74656374696f6e526f6c65000000000000000000604482015290519081900360640190fd5b600160a060020a03821660009081526007602052604090205460ff161515612af9576040805160e560020a62461bcd02815260206004820152601560248201527f61646472657373206973206e6f742066726f7a656e0000000000000000000000604482015290519081900360640190fd5b50600160a060020a03811660009081526001602052604081208054919055600254612b2a908263ffffffff6136ee16565b600255604051600160a060020a038316907ffc5960f1c5a5d2b60f031bf534af053b1bf7d9881989afaeb8b1d164db23aede90600090a2604080518281529051600160a060020a038416917f1b7e18241beced0d7f41fbab1ea8ed468732edbcb74ec4420151654ca71c8a63919081900360200190a2604080518281529051600091600160a060020a038516916000805160206138dd8339815191529181900360200190a35050565b600c5481565b600160a060020a031660009081526007602052604090205460ff1690565b600e54600090600160a060020a03163314612c5c576040805160e560020a62461bcd02815260206004820152601260248201527f6f6e6c7920466565436f6e74726f6c6c65720000000000000000000000000000604482015290519081900360640190fd5b600160a060020a0382161515612ce2576040805160e560020a62461bcd02815260206004820152602860248201527f63616e6e6f74207365742066656520726563697069656e7420746f206164647260448201527f657373207a65726f000000000000000000000000000000000000000000000000606482015290519081900360840190fd5b50600f8054600160a060020a03838116600160a060020a03198316179283905560405191811692169082907f15d80a013f22151bc7246e3bc132e12828cde19de98870475e3fa7084015272190600090a35050565b600854600160a060020a031681565b600082820183811015612d5857600080fd5b8091505b5092915050565b600080831515612d765760009150612d5c565b50828202828482811515612d8657fe5b0414612d5857600080fd5b600080808311612da057600080fd5b8284811515612dab57fe5b04949350505050565b60055460009081908190819060a060020a900460ff1615612e0d576040805160e560020a62461bcd02815260206004820152600d60248201526000805160206138bd833981519152604482015290519081900360640190fd5b336000908152600a602052604090205460ff161515612e9c576040805160e560020a62461bcd02815260206004820152602f60248201527f426574612066656174757265206f6e6c7920616363657074732077686974656c60448201527f69737465642064656c6567617465730000000000000000000000000000000000606482015290519081900360840190fd5b6000881180612eab5750600087115b1515612f27576040805160e560020a62461bcd02815260206004820152603160248201527f63616e6e6f74207472616e73666572207a65726f20746f6b656e73207769746860448201527f207a65726f207365727669636520666565000000000000000000000000000000606482015290519081900360840190fd5b43851015612f7f576040805160e560020a62461bcd02815260206004820152601360248201527f7472616e73616374696f6e206578706972656400000000000000000000000000604482015290519081900360640190fd5b7f7fffffffffffffffffffffffffffffff5d576e7357a4501ddfe92f46681b20a08b1115612ff7576040805160e560020a62461bcd02815260206004820152601360248201527f7369676e617475726520696e636f727265637400000000000000000000000000604482015290519081900360640190fd5b8960ff16601b148061300c57508960ff16601c145b1515613062576040805160e560020a62461bcd02815260206004820152601360248201527f7369676e617475726520696e636f727265637400000000000000000000000000604482015290519081900360640190fd5b604080518082018252600281527f1901000000000000000000000000000000000000000000000000000000000000602080830191909152600c5483517f4265746144656c6567617465645472616e73666572286164647265737320746f81527f2c75696e743235362076616c75652c75696e7432353620736572766963654665818401527f652c75696e74323536207365712c75696e7432353620646561646c696e65290081860152845190819003605f01812081840152600160a060020a038e1681860152606081018d9052608081018c905260a081018b905260c08082018b90528551808303909101815260e09091019485905280519394919390928291908401908083835b602083106131895780518252601f19909201916020918201910161316a565b51815160209384036101000a6000190180199092169116179052604051919093018190038120875190955090830193508392870191508083835b602083106131e25780518252601f1990920191602091820191016131c3565b51815160209384036101000a6000190180199092169116179052920194855250838101929092525060408051808403830181529281019081905282519293509182918401908083835b6020831061324a5780518252601f19909201916020918201910161322b565b6001836020036101000a038019825116818451168082178552505050505050905001915050604051809103902092506001838b8e8e604051600081526020016040526040518085600019166000191681526020018460ff1660ff168152602001836000191660001916815260200182600019166000191681526020019450505050506020604051602081039080840390855afa1580156132ee573d6000803e3d6000fd5b5050604051601f190151925050600160a060020a0382161515613381576040805160e560020a62461bcd02815260206004820152602d60248201527f6572726f722064657465726d696e696e672066726f6d2061646472657373206660448201527f726f6d207369676e617475726500000000000000000000000000000000000000606482015290519081900360840190fd5b600160a060020a03891615156133e1576040805160e560020a62461bcd02815260206004820152601760248201527f63616e6e6f74207573652061646472657373207a65726f000000000000000000604482015290519081900360640190fd5b600160a060020a03891660009081526007602052604090205460ff161580156134235750600160a060020a03821660009081526007602052604090205460ff16155b801561343f57503360009081526007602052604090205460ff16155b1515613483576040805160e560020a62461bcd02815260206004820152600e602482015260008051602061389d833981519152604482015290519081900360640190fd5b600160a060020a0382166000908152600160205260409020546134ac898963ffffffff612d4616565b1115613528576040805160e560020a62461bcd02815260206004820152602360248201527f696e73756666696369656e742066756e6473206f7220626164207369676e617460448201527f7572650000000000000000000000000000000000000000000000000000000000606482015290519081900360840190fd5b600160a060020a0382166000908152600b60205260409020548614613597576040805160e560020a62461bcd02815260206004820152600d60248201527f696e636f72726563742073657100000000000000000000000000000000000000604482015290519081900360640190fd5b600160a060020a0382166000908152600b60205260409020546135c190600163ffffffff612d4616565b600160a060020a0383166000908152600b60205260409020556135e5828a8a613705565b9050861561368c57600160a060020a038216600090815260016020526040902054613616908863ffffffff6136ee16565b600160a060020a038316600090815260016020526040808220929092553381522054613648908863ffffffff612d4616565b336000818152600160209081526040918290209390935580518a815290519192600160a060020a038616926000805160206138dd8339815191529281900390910190a35b60408051828152602081018890528082018990529051600160a060020a03808c1692908516917fe526c2818be85606ab8e0ea3f317c198ef15baabbb4430bcf2d836eed3c7769b9181900360600190a35060019b9a5050505050505050505050565b600080838311156136fe57600080fd5b5050900390565b600080600061371384610de9565b9150613725848363ffffffff6136ee16565b600160a060020a038716600090815260016020526040902054909150613751908563ffffffff6136ee16565b600160a060020a038088166000908152600160205260408082209390935590871681522054613786908263ffffffff612d4616565b600160a060020a0380871660008181526001602090815260409182902094909455805185815290519193928a16926000805160206138dd83398151915292918290030190a3600f54604080518481529051600160a060020a03928316928916916000805160206138dd833981519152919081900360200190a3600082111561389357600f54600160a060020a0316600090815260016020526040902054613833908363ffffffff612d4616565b600f8054600160a060020a039081166000908152600160209081526040918290209490945591548251868152925190821693918a16927ff228de527fc1b9843baac03b9a04565473a263375950e63435d4138464386f4692908290030190a35b959450505050505600616464726573732066726f7a656e0000000000000000000000000000000000007768656e4e6f7450617573656400000000000000000000000000000000000000ddf252ad1be2c89b69c2b068fc378daa952ba7f163c4a11628f55a4df523b3ef6f6e6c794f776e65720000000000000000000000000000000000000000000000a165627a7a723058204c242454c25ff6ebd138020f57a50a1e3d7e1e5356163e38f63fd3974d6bf3c20029",
			"opcodes": "PUSH1 0x80 PUSH1 0x40 MSTORE PUSH1 0x0 DUP1 SLOAD PUSH1 0xFF NOT AND SWAP1 SSTORE PUSH1 0x5 DUP1 SLOAD PUSH1 0xA0 PUSH1 0x2 EXP PUSH1 0xFF MUL NOT AND SWAP1 SSTORE CALLVALUE DUP1 ISZERO PUSH3 0x2B JUMPI PUSH1 0x0 DUP1 REVERT JUMPDEST POP PUSH3 0x3F PUSH5 0x100000000 PUSH3 0x58 DUP2 MUL DIV JUMP JUMPDEST PUSH3 0x52 PUSH5 0x100000000 PUSH3 0x13D DUP2 MUL DIV JUMP JUMPDEST PUSH3 0x406 JUMP JUMPDEST PUSH1 0x0 SLOAD PUSH1 0xFF AND ISZERO PUSH3 0xCB JUMPI PUSH1 0x40 DUP1 MLOAD PUSH32 0x8C379A000000000000000000000000000000000000000000000000000000000 DUP2 MSTORE PUSH1 0x20 PUSH1 0x4 DUP3 ADD MSTORE PUSH1 0x13 PUSH1 0x24 DUP3 ADD MSTORE PUSH32 0x616C726561647920696E697469616C697A656400000000000000000000000000 PUSH1 0x44 DUP3 ADD MSTORE SWAP1 MLOAD SWAP1 DUP2 SWAP1 SUB PUSH1 0x64 ADD SWAP1 REVERT JUMPDEST PUSH1 0x4 DUP1 SLOAD CALLER PUSH1 0x1 PUSH1 0xA0 PUSH1 0x2 EXP SUB NOT SWAP2 DUP3 AND DUP2 OR SWAP1 SWAP3 SSTORE PUSH1 0x5 DUP1 SLOAD DUP3 AND SWAP1 SSTORE PUSH1 0x6 DUP1 SLOAD DUP3 AND SWAP1 SSTORE PUSH1 0x0 PUSH1 0x2 DUP2 SWAP1 SSTORE PUSH1 0x8 DUP1 SLOAD DUP4 AND DUP5 OR SWAP1 SSTORE PUSH1 0xD SSTORE PUSH1 0xE DUP1 SLOAD DUP3 AND DUP4 OR SWAP1 SSTORE PUSH1 0xF DUP1 SLOAD SWAP1 SWAP2 AND SWAP1 SWAP2 OR SWAP1 SSTORE PUSH3 0x12E PUSH5 0x100000000 PUSH3 0x294 DUP2 MUL DIV JUMP JUMPDEST PUSH1 0x0 DUP1 SLOAD PUSH1 0xFF NOT AND PUSH1 0x1 OR SWAP1 SSTORE JUMP JUMPDEST PUSH1 0x4 SLOAD PUSH1 0x1 PUSH1 0xA0 PUSH1 0x2 EXP SUB AND CALLER EQ PUSH3 0x1B7 JUMPI PUSH1 0x40 DUP1 MLOAD PUSH32 0x8C379A000000000000000000000000000000000000000000000000000000000 DUP2 MSTORE PUSH1 0x20 PUSH1 0x4 DUP3 ADD MSTORE PUSH1 0x9 PUSH1 0x24 DUP3 ADD MSTORE PUSH32 0x6F6E6C794F776E65720000000000000000000000000000000000000000000000 PUSH1 0x44 DUP3 ADD MSTORE SWAP1 MLOAD SWAP1 DUP2 SWAP1 SUB PUSH1 0x64 ADD SWAP1 REVERT JUMPDEST PUSH1 0x5 SLOAD PUSH21 0x10000000000000000000000000000000000000000 SWAP1 DIV PUSH1 0xFF AND ISZERO PUSH3 0x242 JUMPI PUSH1 0x40 DUP1 MLOAD PUSH32 0x8C379A000000000000000000000000000000000000000000000000000000000 DUP2 MSTORE PUSH1 0x20 PUSH1 0x4 DUP3 ADD MSTORE PUSH1 0xE PUSH1 0x24 DUP3 ADD MSTORE PUSH32 0x616C726561647920706175736564000000000000000000000000000000000000 PUSH1 0x44 DUP3 ADD MSTORE SWAP1 MLOAD SWAP1 DUP2 SWAP1 SUB PUSH1 0x64 ADD SWAP1 REVERT JUMPDEST PUSH1 0x5 DUP1 SLOAD PUSH1 0xA0 PUSH1 0x2 EXP PUSH1 0xFF MUL NOT AND PUSH21 0x10000000000000000000000000000000000000000 OR SWAP1 SSTORE PUSH1 0x40 MLOAD PUSH32 0x6985A02210A168E66602D3235CB6DB0E70F92B3BA4D376A33C0F3D9434BFF625 SWAP1 PUSH1 0x0 SWAP1 LOG1 JUMP JUMPDEST PUSH1 0x40 DUP1 MLOAD PUSH32 0x454950373132446F6D61696E28737472696E67206E616D652C61646472657373 DUP2 MSTORE PUSH32 0x20766572696679696E67436F6E74726163742900000000000000000000000000 PUSH1 0x20 DUP1 DUP4 ADD SWAP2 SWAP1 SWAP2 MSTORE DUP3 MLOAD SWAP2 DUP3 SWAP1 SUB PUSH1 0x33 ADD DUP3 KECCAK256 DUP3 DUP5 ADD DUP5 MSTORE PUSH1 0xA DUP1 DUP5 MSTORE PUSH32 0x5061786F7320476F6C6400000000000000000000000000000000000000000000 SWAP3 DUP5 ADD SWAP3 DUP4 MSTORE SWAP4 MLOAD SWAP1 SWAP4 SWAP1 SWAP2 DUP3 SWAP2 DUP1 DUP4 DUP4 JUMPDEST PUSH1 0x20 DUP4 LT PUSH3 0x34E JUMPI DUP1 MLOAD DUP3 MSTORE PUSH1 0x1F NOT SWAP1 SWAP3 ADD SWAP2 PUSH1 0x20 SWAP2 DUP3 ADD SWAP2 ADD PUSH3 0x32D JUMP JUMPDEST MLOAD DUP2 MLOAD PUSH1 0x20 SWAP4 DUP5 SUB PUSH2 0x100 EXP PUSH1 0x0 NOT ADD DUP1 NOT SWAP1 SWAP3 AND SWAP2 AND OR SWAP1 MSTORE PUSH1 0x40 DUP1 MLOAD SWAP3 SWAP1 SWAP5 ADD DUP3 SWAP1 SUB DUP3 KECCAK256 DUP3 DUP3 ADD SWAP8 SWAP1 SWAP8 MSTORE DUP2 DUP5 ADD SWAP7 SWAP1 SWAP7 MSTORE ADDRESS PUSH1 0x60 DUP1 DUP4 ADD SWAP2 SWAP1 SWAP2 MSTORE DUP4 MLOAD DUP1 DUP4 SUB SWAP1 SWAP2 ADD DUP2 MSTORE PUSH1 0x80 SWAP1 SWAP2 ADD SWAP3 DUP4 SWAP1 MSTORE DUP1 MLOAD SWAP1 SWAP6 SWAP3 SWAP5 POP DUP5 SWAP4 POP SWAP2 DUP6 ADD SWAP2 SWAP1 POP DUP1 DUP4 DUP4 JUMPDEST PUSH1 0x20 DUP4 LT PUSH3 0x3D5 JUMPI DUP1 MLOAD DUP3 MSTORE PUSH1 0x1F NOT SWAP1 SWAP3 ADD SWAP2 PUSH1 0x20 SWAP2 DUP3 ADD SWAP2 ADD PUSH3 0x3B4 JUMP JUMPDEST MLOAD DUP2 MLOAD PUSH1 0x20 SWAP4 SWAP1 SWAP4 SUB PUSH2 0x100 EXP PUSH1 0x0 NOT ADD DUP1 NOT SWAP1 SWAP2 AND SWAP3 AND SWAP2 SWAP1 SWAP2 OR SWAP1 MSTORE PUSH1 0x40 MLOAD SWAP3 ADD DUP3 SWAP1 SUB SWAP1 SWAP2 KECCAK256 PUSH1 0xC SSTORE POP POP POP JUMP JUMPDEST PUSH2 0x3948 DUP1 PUSH3 0x416 PUSH1 0x0 CODECOPY PUSH1 0x0 RETURN STOP PUSH1 0x80 PUSH1 0x40 MSTORE PUSH1 0x4 CALLDATASIZE LT PUSH2 0x245 JUMPI PUSH4 0xFFFFFFFF PUSH29 0x100000000000000000000000000000000000000000000000000000000 PUSH1 0x0 CALLDATALOAD DIV AND PUSH4 0x3ACB448 DUP2 EQ PUSH2 0x24A JUMPI DUP1 PUSH4 0x6FDDE03 EQ PUSH2 0x261 JUMPI DUP1 PUSH4 0x8ABDEBA EQ PUSH2 0x2EB JUMPI DUP1 PUSH4 0x95EA7B3 EQ PUSH2 0x300 JUMPI DUP1 PUSH4 0xA91B601 EQ PUSH2 0x338 JUMPI DUP1 PUSH4 0xABE469A EQ PUSH2 0x369 JUMPI DUP1 PUSH4 0x18160DDD EQ PUSH2 0x393 JUMPI DUP1 PUSH4 0x1B670561 EQ PUSH2 0x3A8 JUMPI DUP1 PUSH4 0x21AB11F7 EQ PUSH2 0x58C JUMPI DUP1 PUSH4 0x23B872DD EQ PUSH2 0x605 JUMPI DUP1 PUSH4 0x2FF79161 EQ PUSH2 0x62F JUMPI DUP1 PUSH4 0x313CE567 EQ PUSH2 0x644 JUMPI DUP1 PUSH4 0x3ED4C678 EQ PUSH2 0x66F JUMPI DUP1 PUSH4 0x3F4BA83A EQ PUSH2 0x690 JUMPI DUP1 PUSH4 0x45596E2E EQ PUSH2 0x6A5 JUMPI DUP1 PUSH4 0x45C8B1A6 EQ PUSH2 0x6BD JUMPI DUP1 PUSH4 0x46904840 EQ PUSH2 0x6DE JUMPI DUP1 PUSH4 0x4E71E0C8 EQ PUSH2 0x6F3 JUMPI DUP1 PUSH4 0x52875BC3 EQ PUSH2 0x708 JUMPI DUP1 PUSH4 0x57526B3F EQ PUSH2 0x729 JUMPI DUP1 PUSH4 0x5C975ABB EQ PUSH2 0x73E JUMPI DUP1 PUSH4 0x6999B377 EQ PUSH2 0x753 JUMPI DUP1 PUSH4 0x70A08231 EQ PUSH2 0x768 JUMPI DUP1 PUSH4 0x8129FC1C EQ PUSH2 0x789 JUMPI DUP1 PUSH4 0x8456CB59 EQ PUSH2 0x79E JUMPI DUP1 PUSH4 0x89F72C21 EQ PUSH2 0x7B3 JUMPI DUP1 PUSH4 0x8CEED9CB EQ PUSH2 0x7D4 JUMPI DUP1 PUSH4 0x8D1FDF2F EQ PUSH2 0x7F5 JUMPI DUP1 PUSH4 0x8DA5CB5B EQ PUSH2 0x816 JUMPI DUP1 PUSH4 0x95D89B41 EQ PUSH2 0x82B JUMPI DUP1 PUSH4 0x978BBDB9 EQ PUSH2 0x840 JUMPI DUP1 PUSH4 0x97D60D56 EQ PUSH2 0x855 JUMPI DUP1 PUSH4 0x98E52F9A EQ PUSH2 0x876 JUMPI DUP1 PUSH4 0xA7D87ED0 EQ PUSH2 0x88E JUMPI DUP1 PUSH4 0xA9059CBB EQ PUSH2 0x8AF JUMPI DUP1 PUSH4 0xAC69275C EQ PUSH2 0x8D3 JUMPI DUP1 PUSH4 0xB5ED298A EQ PUSH2 0x8F4 JUMPI DUP1 PUSH4 0xB921E163 EQ PUSH2 0x915 JUMPI DUP1 PUSH4 0xC4F62FEE EQ PUSH2 0x92D JUMPI DUP1 PUSH4 0xCC0F1786 EQ PUSH2 0x942 JUMPI DUP1 PUSH4 0xD153B60C EQ PUSH2 0x957 JUMPI DUP1 PUSH4 0xD990C618 EQ PUSH2 0x96C JUMPI DUP1 PUSH4 0xDD62ED3E EQ PUSH2 0x98D JUMPI DUP1 PUSH4 0xE2F72F03 EQ PUSH2 0x9B4 JUMPI DUP1 PUSH4 0xE306F779 EQ PUSH2 0x9D5 JUMPI DUP1 PUSH4 0xE5839836 EQ PUSH2 0x9EA JUMPI DUP1 PUSH4 0xE74B981B EQ PUSH2 0xA0B JUMPI DUP1 PUSH4 0xE7BA1012 EQ PUSH2 0xA2C JUMPI JUMPDEST PUSH1 0x0 DUP1 REVERT JUMPDEST CALLVALUE DUP1 ISZERO PUSH2 0x256 JUMPI PUSH1 0x0 DUP1 REVERT JUMPDEST POP PUSH2 0x25F PUSH2 0xA41 JUMP JUMPDEST STOP JUMPDEST CALLVALUE DUP1 ISZERO PUSH2 0x26D JUMPI PUSH1 0x0 DUP1 REVERT JUMPDEST POP PUSH2 0x276 PUSH2 0xB92 JUMP JUMPDEST PUSH1 0x40 DUP1 MLOAD PUSH1 0x20 DUP1 DUP3 MSTORE DUP4 MLOAD DUP2 DUP4 ADD MSTORE DUP4 MLOAD SWAP2 SWAP3 DUP4 SWAP3 SWAP1 DUP4 ADD SWAP2 DUP6 ADD SWAP1 DUP1 DUP4 DUP4 PUSH1 0x0 JUMPDEST DUP4 DUP2 LT ISZERO PUSH2 0x2B0 JUMPI DUP2 DUP2 ADD MLOAD DUP4 DUP3 ADD MSTORE PUSH1 0x20 ADD PUSH2 0x298 JUMP JUMPDEST POP POP POP POP SWAP1 POP SWAP1 DUP2 ADD SWAP1 PUSH1 0x1F AND DUP1 ISZERO PUSH2 0x2DD JUMPI DUP1 DUP3 SUB DUP1 MLOAD PUSH1 0x1 DUP4 PUSH1 0x20 SUB PUSH2 0x100 EXP SUB NOT AND DUP2 MSTORE PUSH1 0x20 ADD SWAP2 POP JUMPDEST POP SWAP3 POP POP POP PUSH1 0x40 MLOAD DUP1 SWAP2 SUB SWAP1 RETURN JUMPDEST CALLVALUE DUP1 ISZERO PUSH2 0x2F7 JUMPI PUSH1 0x0 DUP1 REVERT JUMPDEST POP PUSH2 0x25F PUSH2 0xBC9 JUMP JUMPDEST CALLVALUE DUP1 ISZERO PUSH2 0x30C JUMPI PUSH1 0x0 DUP1 REVERT JUMPDEST POP PUSH2 0x324 PUSH1 0x1 PUSH1 0xA0 PUSH1 0x2 EXP SUB PUSH1 0x4 CALLDATALOAD AND PUSH1 0x24 CALLDATALOAD PUSH2 0xCA3 JUMP JUMPDEST PUSH1 0x40 DUP1 MLOAD SWAP2 ISZERO ISZERO DUP3 MSTORE MLOAD SWAP1 DUP2 SWAP1 SUB PUSH1 0x20 ADD SWAP1 RETURN JUMPDEST CALLVALUE DUP1 ISZERO PUSH2 0x344 JUMPI PUSH1 0x0 DUP1 REVERT JUMPDEST POP PUSH2 0x34D PUSH2 0xDDA JUMP JUMPDEST PUSH1 0x40 DUP1 MLOAD PUSH1 0x1 PUSH1 0xA0 PUSH1 0x2 EXP SUB SWAP1 SWAP3 AND DUP3 MSTORE MLOAD SWAP1 DUP2 SWAP1 SUB PUSH1 0x20 ADD SWAP1 RETURN JUMPDEST CALLVALUE DUP1 ISZERO PUSH2 0x375 JUMPI PUSH1 0x0 DUP1 REVERT JUMPDEST POP PUSH2 0x381 PUSH1 0x4 CALLDATALOAD PUSH2 0xDE9 JUMP JUMPDEST PUSH1 0x40 DUP1 MLOAD SWAP2 DUP3 MSTORE MLOAD SWAP1 DUP2 SWAP1 SUB PUSH1 0x20 ADD SWAP1 RETURN JUMPDEST CALLVALUE DUP1 ISZERO PUSH2 0x39F JUMPI PUSH1 0x0 DUP1 REVERT JUMPDEST POP PUSH2 0x381 PUSH2 0xE2E JUMP JUMPDEST CALLVALUE DUP1 ISZERO PUSH2 0x3B4 JUMPI PUSH1 0x0 DUP1 REVERT JUMPDEST POP PUSH1 0x40 DUP1 MLOAD PUSH1 0x20 PUSH1 0x4 DUP1 CALLDATALOAD DUP1 DUP3 ADD CALLDATALOAD DUP4 DUP2 MUL DUP1 DUP7 ADD DUP6 ADD SWAP1 SWAP7 MSTORE DUP1 DUP6 MSTORE PUSH2 0x324 SWAP6 CALLDATASIZE SWAP6 SWAP4 SWAP5 PUSH1 0x24 SWAP5 SWAP4 DUP6 ADD SWAP3 SWAP2 DUP3 SWAP2 DUP6 ADD SWAP1 DUP5 SWAP1 DUP1 DUP3 DUP5 CALLDATACOPY POP POP PUSH1 0x40 DUP1 MLOAD DUP8 CALLDATALOAD DUP10 ADD DUP1 CALLDATALOAD PUSH1 0x20 DUP2 DUP2 MUL DUP5 DUP2 ADD DUP3 ADD SWAP1 SWAP6 MSTORE DUP2 DUP5 MSTORE SWAP9 SWAP12 SWAP11 SWAP10 DUP10 ADD SWAP9 SWAP3 SWAP8 POP SWAP1 DUP3 ADD SWAP6 POP SWAP4 POP DUP4 SWAP3 POP DUP6 ADD SWAP1 DUP5 SWAP1 DUP1 DUP3 DUP5 CALLDATACOPY POP POP PUSH1 0x40 DUP1 MLOAD DUP8 CALLDATALOAD DUP10 ADD DUP1 CALLDATALOAD PUSH1 0x20 DUP2 DUP2 MUL DUP5 DUP2 ADD DUP3 ADD SWAP1 SWAP6 MSTORE DUP2 DUP5 MSTORE SWAP9 SWAP12 SWAP11 SWAP10 DUP10 ADD SWAP9 SWAP3 SWAP8 POP SWAP1 DUP3 ADD SWAP6 POP SWAP4 POP DUP4 SWAP3 POP DUP6 ADD SWAP1 DUP5 SWAP1 DUP1 DUP3 DUP5 CALLDATACOPY POP POP PUSH1 0x40 DUP1 MLOAD DUP8 CALLDATALOAD DUP10 ADD DUP1 CALLDATALOAD PUSH1 0x20 DUP2 DUP2 MUL DUP5 DUP2 ADD DUP3 ADD SWAP1 SWAP6 MSTORE DUP2 DUP5 MSTORE SWAP9 SWAP12 SWAP11 SWAP10 DUP10 ADD SWAP9 SWAP3 SWAP8 POP SWAP1 DUP3 ADD SWAP6 POP SWAP4 POP DUP4 SWAP3 POP DUP6 ADD SWAP1 DUP5 SWAP1 DUP1 DUP3 DUP5 CALLDATACOPY POP POP PUSH1 0x40 DUP1 MLOAD DUP8 CALLDATALOAD DUP10 ADD DUP1 CALLDATALOAD PUSH1 0x20 DUP2 DUP2 MUL DUP5 DUP2 ADD DUP3 ADD SWAP1 SWAP6 MSTORE DUP2 DUP5 MSTORE SWAP9 SWAP12 SWAP11 SWAP10 DUP10 ADD SWAP9 SWAP3 SWAP8 POP SWAP1 DUP3 ADD SWAP6 POP SWAP4 POP DUP4 SWAP3 POP DUP6 ADD SWAP1 DUP5 SWAP1 DUP1 DUP3 DUP5 CALLDATACOPY POP POP PUSH1 0x40 DUP1 MLOAD DUP8 CALLDATALOAD DUP10 ADD DUP1 CALLDATALOAD PUSH1 0x20 DUP2 DUP2 MUL DUP5 DUP2 ADD DUP3 ADD SWAP1 SWAP6 MSTORE DUP2 DUP5 MSTORE SWAP9 SWAP12 SWAP11 SWAP10 DUP10 ADD SWAP9 SWAP3 SWAP8 POP SWAP1 DUP3 ADD SWAP6 POP SWAP4 POP DUP4 SWAP3 POP DUP6 ADD SWAP1 DUP5 SWAP1 DUP1 DUP3 DUP5 CALLDATACOPY POP POP PUSH1 0x40 DUP1 MLOAD DUP8 CALLDATALOAD DUP10 ADD DUP1 CALLDATALOAD PUSH1 0x20 DUP2 DUP2 MUL DUP5 DUP2 ADD DUP3 ADD SWAP1 SWAP6 MSTORE DUP2 DUP5 MSTORE SWAP9 SWAP12 SWAP11 SWAP10 DUP10 ADD SWAP9 SWAP3 SWAP8 POP SWAP1 DUP3 ADD SWAP6 POP SWAP4 POP DUP4 SWAP3 POP DUP6 ADD SWAP1 DUP5 SWAP1 DUP1 DUP3 DUP5 CALLDATACOPY POP POP PUSH1 0x40 DUP1 MLOAD DUP8 CALLDATALOAD DUP10 ADD DUP1 CALLDATALOAD PUSH1 0x20 DUP2 DUP2 MUL DUP5 DUP2 ADD DUP3 ADD SWAP1 SWAP6 MSTORE DUP2 DUP5 MSTORE SWAP9 SWAP12 SWAP11 SWAP10 DUP10 ADD SWAP9 SWAP3 SWAP8 POP SWAP1 DUP3 ADD SWAP6 POP SWAP4 POP DUP4 SWAP3 POP DUP6 ADD SWAP1 DUP5 SWAP1 DUP1 DUP3 DUP5 CALLDATACOPY POP SWAP5 SWAP8 POP PUSH2 0xE34 SWAP7 POP POP POP POP POP POP POP JUMP JUMPDEST CALLVALUE DUP1 ISZERO PUSH2 0x598 JUMPI PUSH1 0x0 DUP1 REVERT JUMPDEST POP PUSH1 0x40 DUP1 MLOAD PUSH1 0x20 PUSH1 0x4 DUP1 CALLDATALOAD DUP1 DUP3 ADD CALLDATALOAD PUSH1 0x1F DUP2 ADD DUP5 SWAP1 DIV DUP5 MUL DUP6 ADD DUP5 ADD SWAP1 SWAP6 MSTORE DUP5 DUP5 MSTORE PUSH2 0x324 SWAP5 CALLDATASIZE SWAP5 SWAP3 SWAP4 PUSH1 0x24 SWAP4 SWAP3 DUP5 ADD SWAP2 SWAP1 DUP2 SWAP1 DUP5 ADD DUP4 DUP3 DUP1 DUP3 DUP5 CALLDATACOPY POP SWAP5 SWAP8 POP POP PUSH1 0x1 PUSH1 0xA0 PUSH1 0x2 EXP SUB DUP6 CALLDATALOAD AND SWAP6 POP POP POP PUSH1 0x20 DUP4 ADD CALLDATALOAD SWAP3 PUSH1 0x40 DUP2 ADD CALLDATALOAD SWAP3 POP PUSH1 0x60 DUP2 ADD CALLDATALOAD SWAP2 POP PUSH1 0x80 ADD CALLDATALOAD PUSH2 0x1071 JUMP JUMPDEST CALLVALUE DUP1 ISZERO PUSH2 0x611 JUMPI PUSH1 0x0 DUP1 REVERT JUMPDEST POP PUSH2 0x324 PUSH1 0x1 PUSH1 0xA0 PUSH1 0x2 EXP SUB PUSH1 0x4 CALLDATALOAD DUP2 AND SWAP1 PUSH1 0x24 CALLDATALOAD AND PUSH1 0x44 CALLDATALOAD PUSH2 0x114D JUMP JUMPDEST CALLVALUE DUP1 ISZERO PUSH2 0x63B JUMPI PUSH1 0x0 DUP1 REVERT JUMPDEST POP PUSH2 0x25F PUSH2 0x13FB JUMP JUMPDEST CALLVALUE DUP1 ISZERO PUSH2 0x650 JUMPI PUSH1 0x0 DUP1 REVERT JUMPDEST POP PUSH2 0x659 PUSH2 0x1569 JUMP JUMPDEST PUSH1 0x40 DUP1 MLOAD PUSH1 0xFF SWAP1 SWAP3 AND DUP3 MSTORE MLOAD SWAP1 DUP2 SWAP1 SUB PUSH1 0x20 ADD SWAP1 RETURN JUMPDEST CALLVALUE DUP1 ISZERO PUSH2 0x67B JUMPI PUSH1 0x0 DUP1 REVERT JUMPDEST POP PUSH2 0x25F PUSH1 0x1 PUSH1 0xA0 PUSH1 0x2 EXP SUB PUSH1 0x4 CALLDATALOAD AND PUSH2 0x156E JUMP JUMPDEST CALLVALUE DUP1 ISZERO PUSH2 0x69C JUMPI PUSH1 0x0 DUP1 REVERT JUMPDEST POP PUSH2 0x25F PUSH2 0x16C5 JUMP JUMPDEST CALLVALUE DUP1 ISZERO PUSH2 0x6B1 JUMPI PUSH1 0x0 DUP1 REVERT JUMPDEST POP PUSH2 0x25F PUSH1 0x4 CALLDATALOAD PUSH2 0x17C1 JUMP JUMPDEST CALLVALUE DUP1 ISZERO PUSH2 0x6C9 JUMPI PUSH1 0x0 DUP1 REVERT JUMPDEST POP PUSH2 0x25F PUSH1 0x1 PUSH1 0xA0 PUSH1 0x2 EXP SUB PUSH1 0x4 CALLDATALOAD AND PUSH2 0x18BB JUMP JUMPDEST CALLVALUE DUP1 ISZERO PUSH2 0x6EA JUMPI PUSH1 0x0 DUP1 REVERT JUMPDEST POP PUSH2 0x34D PUSH2 0x19D8 JUMP JUMPDEST CALLVALUE DUP1 ISZERO PUSH2 0x6FF JUMPI PUSH1 0x0 DUP1 REVERT JUMPDEST POP PUSH2 0x25F PUSH2 0x19E7 JUMP JUMPDEST CALLVALUE DUP1 ISZERO PUSH2 0x714 JUMPI PUSH1 0x0 DUP1 REVERT JUMPDEST POP PUSH2 0x25F PUSH1 0x1 PUSH1 0xA0 PUSH1 0x2 EXP SUB PUSH1 0x4 CALLDATALOAD AND PUSH2 0x1AAD JUMP JUMPDEST CALLVALUE DUP1 ISZERO PUSH2 0x735 JUMPI PUSH1 0x0 DUP1 REVERT JUMPDEST POP PUSH2 0x381 PUSH2 0x1C08 JUMP JUMPDEST CALLVALUE DUP1 ISZERO PUSH2 0x74A JUMPI PUSH1 0x0 DUP1 REVERT JUMPDEST POP PUSH2 0x324 PUSH2 0x1C0F JUMP JUMPDEST CALLVALUE DUP1 ISZERO PUSH2 0x75F JUMPI PUSH1 0x0 DUP1 REVERT JUMPDEST POP PUSH2 0x34D PUSH2 0x1C1F JUMP JUMPDEST CALLVALUE DUP1 ISZERO PUSH2 0x774 JUMPI PUSH1 0x0 DUP1 REVERT JUMPDEST POP PUSH2 0x381 PUSH1 0x1 PUSH1 0xA0 PUSH1 0x2 EXP SUB PUSH1 0x4 CALLDATALOAD AND PUSH2 0x1C2E JUMP JUMPDEST CALLVALUE DUP1 ISZERO PUSH2 0x795 JUMPI PUSH1 0x0 DUP1 REVERT JUMPDEST POP PUSH2 0x25F PUSH2 0x1C49 JUMP JUMPDEST CALLVALUE DUP1 ISZERO PUSH2 0x7AA JUMPI PUSH1 0x0 DUP1 REVERT JUMPDEST POP PUSH2 0x25F PUSH2 0x1D0B JUMP JUMPDEST CALLVALUE DUP1 ISZERO PUSH2 0x7BF JUMPI PUSH1 0x0 DUP1 REVERT JUMPDEST POP PUSH2 0x381 PUSH1 0x1 PUSH1 0xA0 PUSH1 0x2 EXP SUB PUSH1 0x4 CALLDATALOAD AND PUSH2 0x1E0C JUMP JUMPDEST CALLVALUE DUP1 ISZERO PUSH2 0x7E0 JUMPI PUSH1 0x0 DUP1 REVERT JUMPDEST POP PUSH2 0x25F PUSH1 0x1 PUSH1 0xA0 PUSH1 0x2 EXP SUB PUSH1 0x4 CALLDATALOAD AND PUSH2 0x1E27 JUMP JUMPDEST CALLVALUE DUP1 ISZERO PUSH2 0x801 JUMPI PUSH1 0x0 DUP1 REVERT JUMPDEST POP PUSH2 0x25F PUSH1 0x1 PUSH1 0xA0 PUSH1 0x2 EXP SUB PUSH1 0x4 CALLDATALOAD AND PUSH2 0x1F22 JUMP JUMPDEST CALLVALUE DUP1 ISZERO PUSH2 0x822 JUMPI PUSH1 0x0 DUP1 REVERT JUMPDEST POP PUSH2 0x34D PUSH2 0x2041 JUMP JUMPDEST CALLVALUE DUP1 ISZERO PUSH2 0x837 JUMPI PUSH1 0x0 DUP1 REVERT JUMPDEST POP PUSH2 0x276 PUSH2 0x2050 JUMP JUMPDEST CALLVALUE DUP1 ISZERO PUSH2 0x84C JUMPI PUSH1 0x0 DUP1 REVERT JUMPDEST POP PUSH2 0x381 PUSH2 0x2087 JUMP JUMPDEST CALLVALUE DUP1 ISZERO PUSH2 0x861 JUMPI PUSH1 0x0 DUP1 REVERT JUMPDEST POP PUSH2 0x25F PUSH1 0x1 PUSH1 0xA0 PUSH1 0x2 EXP SUB PUSH1 0x4 CALLDATALOAD AND PUSH2 0x208D JUMP JUMPDEST CALLVALUE DUP1 ISZERO PUSH2 0x882 JUMPI PUSH1 0x0 DUP1 REVERT JUMPDEST POP PUSH2 0x324 PUSH1 0x4 CALLDATALOAD PUSH2 0x2156 JUMP JUMPDEST CALLVALUE DUP1 ISZERO PUSH2 0x89A JUMPI PUSH1 0x0 DUP1 REVERT JUMPDEST POP PUSH2 0x324 PUSH1 0x1 PUSH1 0xA0 PUSH1 0x2 EXP SUB PUSH1 0x4 CALLDATALOAD AND PUSH2 0x2305 JUMP JUMPDEST CALLVALUE DUP1 ISZERO PUSH2 0x8BB JUMPI PUSH1 0x0 DUP1 REVERT JUMPDEST POP PUSH2 0x324 PUSH1 0x1 PUSH1 0xA0 PUSH1 0x2 EXP SUB PUSH1 0x4 CALLDATALOAD AND PUSH1 0x24 CALLDATALOAD PUSH2 0x2323 JUMP JUMPDEST CALLVALUE DUP1 ISZERO PUSH2 0x8DF JUMPI PUSH1 0x0 DUP1 REVERT JUMPDEST POP PUSH2 0x25F PUSH1 0x1 PUSH1 0xA0 PUSH1 0x2 EXP SUB PUSH1 0x4 CALLDATALOAD AND PUSH2 0x24CF JUMP JUMPDEST CALLVALUE DUP1 ISZERO PUSH2 0x900 JUMPI PUSH1 0x0 DUP1 REVERT JUMPDEST POP PUSH2 0x25F PUSH1 0x1 PUSH1 0xA0 PUSH1 0x2 EXP SUB PUSH1 0x4 CALLDATALOAD AND PUSH2 0x25EE JUMP JUMPDEST CALLVALUE DUP1 ISZERO PUSH2 0x921 JUMPI PUSH1 0x0 DUP1 REVERT JUMPDEST POP PUSH2 0x324 PUSH1 0x4 CALLDATALOAD PUSH2 0x277C JUMP JUMPDEST CALLVALUE DUP1 ISZERO PUSH2 0x939 JUMPI PUSH1 0x0 DUP1 REVERT JUMPDEST POP PUSH2 0x34D PUSH2 0x28B7 JUMP JUMPDEST CALLVALUE DUP1 ISZERO PUSH2 0x94E JUMPI PUSH1 0x0 DUP1 REVERT JUMPDEST POP PUSH2 0x659 PUSH2 0x28C6 JUMP JUMPDEST CALLVALUE DUP1 ISZERO PUSH2 0x963 JUMPI PUSH1 0x0 DUP1 REVERT JUMPDEST POP PUSH2 0x34D PUSH2 0x28CB JUMP JUMPDEST CALLVALUE DUP1 ISZERO PUSH2 0x978 JUMPI PUSH1 0x0 DUP1 REVERT JUMPDEST POP PUSH2 0x25F PUSH1 0x1 PUSH1 0xA0 PUSH1 0x2 EXP SUB PUSH1 0x4 CALLDATALOAD AND PUSH2 0x28DA JUMP JUMPDEST CALLVALUE DUP1 ISZERO PUSH2 0x999 JUMPI PUSH1 0x0 DUP1 REVERT JUMPDEST POP PUSH2 0x381 PUSH1 0x1 PUSH1 0xA0 PUSH1 0x2 EXP SUB PUSH1 0x4 CALLDATALOAD DUP2 AND SWAP1 PUSH1 0x24 CALLDATALOAD AND PUSH2 0x29F7 JUMP JUMPDEST CALLVALUE DUP1 ISZERO PUSH2 0x9C0 JUMPI PUSH1 0x0 DUP1 REVERT JUMPDEST POP PUSH2 0x25F PUSH1 0x1 PUSH1 0xA0 PUSH1 0x2 EXP SUB PUSH1 0x4 CALLDATALOAD AND PUSH2 0x2A22 JUMP JUMPDEST CALLVALUE DUP1 ISZERO PUSH2 0x9E1 JUMPI PUSH1 0x0 DUP1 REVERT JUMPDEST POP PUSH2 0x381 PUSH2 0x2BD3 JUMP JUMPDEST CALLVALUE DUP1 ISZERO PUSH2 0x9F6 JUMPI PUSH1 0x0 DUP1 REVERT JUMPDEST POP PUSH2 0x324 PUSH1 0x1 PUSH1 0xA0 PUSH1 0x2 EXP SUB PUSH1 0x4 CALLDATALOAD AND PUSH2 0x2BD9 JUMP JUMPDEST CALLVALUE DUP1 ISZERO PUSH2 0xA17 JUMPI PUSH1 0x0 DUP1 REVERT JUMPDEST POP PUSH2 0x25F PUSH1 0x1 PUSH1 0xA0 PUSH1 0x2 EXP SUB PUSH1 0x4 CALLDATALOAD AND PUSH2 0x2BF7 JUMP JUMPDEST CALLVALUE DUP1 ISZERO PUSH2 0xA38 JUMPI PUSH1 0x0 DUP1 REVERT JUMPDEST POP PUSH2 0x34D PUSH2 0x2D37 JUMP JUMPDEST PUSH1 0x5 SLOAD PUSH1 0x0 SWAP1 PUSH1 0x1 PUSH1 0xA0 PUSH1 0x2 EXP SUB AND CALLER EQ DUP1 PUSH2 0xA67 JUMPI POP PUSH1 0x4 SLOAD PUSH1 0x1 PUSH1 0xA0 PUSH1 0x2 EXP SUB AND CALLER EQ JUMPDEST ISZERO ISZERO PUSH2 0xABD JUMPI PUSH1 0x40 DUP1 MLOAD PUSH1 0xE5 PUSH1 0x2 EXP PUSH3 0x461BCD MUL DUP2 MSTORE PUSH1 0x20 PUSH1 0x4 DUP3 ADD MSTORE PUSH1 0x1B PUSH1 0x24 DUP3 ADD MSTORE PUSH32 0x6F6E6C792070726F706F7365644F776E6572206F72206F776E65720000000000 PUSH1 0x44 DUP3 ADD MSTORE SWAP1 MLOAD SWAP1 DUP2 SWAP1 SUB PUSH1 0x64 ADD SWAP1 REVERT JUMPDEST PUSH1 0x5 SLOAD PUSH1 0x1 PUSH1 0xA0 PUSH1 0x2 EXP SUB AND ISZERO ISZERO PUSH2 0xB45 JUMPI PUSH1 0x40 DUP1 MLOAD PUSH1 0xE5 PUSH1 0x2 EXP PUSH3 0x461BCD MUL DUP2 MSTORE PUSH1 0x20 PUSH1 0x4 DUP3 ADD MSTORE PUSH1 0x3B PUSH1 0x24 DUP3 ADD MSTORE PUSH32 0x63616E206F6E6C792064697372656761726420612070726F706F736564206F77 PUSH1 0x44 DUP3 ADD MSTORE PUSH32 0x6E65722074686174207761732070726576696F75736C79207365740000000000 PUSH1 0x64 DUP3 ADD MSTORE SWAP1 MLOAD SWAP1 DUP2 SWAP1 SUB PUSH1 0x84 ADD SWAP1 REVERT JUMPDEST POP PUSH1 0x5 DUP1 SLOAD PUSH1 0x1 PUSH1 0xA0 PUSH1 0x2 EXP SUB NOT DUP2 AND SWAP1 SWAP2 SSTORE PUSH1 0x40 MLOAD PUSH1 0x1 PUSH1 0xA0 PUSH1 0x2 EXP SUB SWAP1 SWAP2 AND SWAP1 DUP2 SWAP1 PUSH32 0x24F4590B0077912A4DB89E7430DE7986175C27BEDE1B47EE039E3B421C2E798E SWAP1 PUSH1 0x0 SWAP1 LOG2 POP JUMP JUMPDEST PUSH1 0x40 DUP1 MLOAD DUP1 DUP3 ADD SWAP1 SWAP2 MSTORE PUSH1 0xA DUP2 MSTORE PUSH32 0x5061786F7320476F6C6400000000000000000000000000000000000000000000 PUSH1 0x20 DUP3 ADD MSTORE DUP2 JUMP JUMPDEST PUSH1 0x4 SLOAD PUSH1 0x0 SWAP1 PUSH1 0x1 PUSH1 0xA0 PUSH1 0x2 EXP SUB AND CALLER EQ PUSH2 0xC1C JUMPI PUSH1 0x40 DUP1 MLOAD PUSH1 0xE5 PUSH1 0x2 EXP PUSH3 0x461BCD MUL DUP2 MSTORE PUSH1 0x20 PUSH1 0x4 DUP3 ADD MSTORE PUSH1 0x9 PUSH1 0x24 DUP3 ADD MSTORE PUSH1 0x0 DUP1 MLOAD PUSH1 0x20 PUSH2 0x38FD DUP4 CODECOPY DUP2 MLOAD SWAP2 MSTORE PUSH1 0x44 DUP3 ADD MSTORE SWAP1 MLOAD SWAP1 DUP2 SWAP1 SUB PUSH1 0x64 ADD SWAP1 REVERT JUMPDEST POP ADDRESS PUSH1 0x0 SWAP1 DUP2 MSTORE PUSH1 0x1 PUSH1 0x20 MSTORE PUSH1 0x40 DUP1 DUP3 KECCAK256 DUP1 SLOAD SWAP1 DUP4 SWAP1 SSTORE PUSH1 0x4 SLOAD PUSH1 0x1 PUSH1 0xA0 PUSH1 0x2 EXP SUB AND DUP4 MSTORE SWAP2 KECCAK256 SLOAD PUSH2 0xC54 SWAP1 DUP3 PUSH4 0xFFFFFFFF PUSH2 0x2D46 AND JUMP JUMPDEST PUSH1 0x4 DUP1 SLOAD PUSH1 0x1 PUSH1 0xA0 PUSH1 0x2 EXP SUB SWAP1 DUP2 AND PUSH1 0x0 SWAP1 DUP2 MSTORE PUSH1 0x1 PUSH1 0x20 SWAP1 DUP2 MSTORE PUSH1 0x40 SWAP2 DUP3 SWAP1 KECCAK256 SWAP5 SWAP1 SWAP5 SSTORE SWAP2 SLOAD DUP3 MLOAD DUP6 DUP2 MSTORE SWAP3 MLOAD SWAP2 AND SWAP3 ADDRESS SWAP3 PUSH1 0x0 DUP1 MLOAD PUSH1 0x20 PUSH2 0x38DD DUP4 CODECOPY DUP2 MLOAD SWAP2 MSTORE SWAP3 SWAP1 DUP2 SWAP1 SUB SWAP1 SWAP2 ADD SWAP1 LOG3 POP JUMP JUMPDEST PUSH1 0x5 SLOAD PUSH1 0x0 SWAP1 PUSH1 0xA0 PUSH1 0x2 EXP SWAP1 DIV PUSH1 0xFF AND ISZERO PUSH2 0xCF6 JUMPI PUSH1 0x40 DUP1 MLOAD PUSH1 0xE5 PUSH1 0x2 EXP PUSH3 0x461BCD MUL DUP2 MSTORE PUSH1 0x20 PUSH1 0x4 DUP3 ADD MSTORE PUSH1 0xD PUSH1 0x24 DUP3 ADD MSTORE PUSH1 0x0 DUP1 MLOAD PUSH1 0x20 PUSH2 0x38BD DUP4 CODECOPY DUP2 MLOAD SWAP2 MSTORE PUSH1 0x44 DUP3 ADD MSTORE SWAP1 MLOAD SWAP1 DUP2 SWAP1 SUB PUSH1 0x64 ADD SWAP1 REVERT JUMPDEST PUSH1 0x1 PUSH1 0xA0 PUSH1 0x2 EXP SUB DUP4 AND PUSH1 0x0 SWAP1 DUP2 MSTORE PUSH1 0x7 PUSH1 0x20 MSTORE PUSH1 0x40 SWAP1 KECCAK256 SLOAD PUSH1 0xFF AND ISZERO DUP1 ISZERO PUSH2 0xD2F JUMPI POP CALLER PUSH1 0x0 SWAP1 DUP2 MSTORE PUSH1 0x7 PUSH1 0x20 MSTORE PUSH1 0x40 SWAP1 KECCAK256 SLOAD PUSH1 0xFF AND ISZERO JUMPDEST ISZERO ISZERO PUSH2 0xD73 JUMPI PUSH1 0x40 DUP1 MLOAD PUSH1 0xE5 PUSH1 0x2 EXP PUSH3 0x461BCD MUL DUP2 MSTORE PUSH1 0x20 PUSH1 0x4 DUP3 ADD MSTORE PUSH1 0xE PUSH1 0x24 DUP3 ADD MSTORE PUSH1 0x0 DUP1 MLOAD PUSH1 0x20 PUSH2 0x389D DUP4 CODECOPY DUP2 MLOAD SWAP2 MSTORE PUSH1 0x44 DUP3 ADD MSTORE SWAP1 MLOAD SWAP1 DUP2 SWAP1 SUB PUSH1 0x64 ADD SWAP1 REVERT JUMPDEST CALLER PUSH1 0x0 DUP2 DUP2 MSTORE PUSH1 0x3 PUSH1 0x20 SWAP1 DUP2 MSTORE PUSH1 0x40 DUP1 DUP4 KECCAK256 PUSH1 0x1 PUSH1 0xA0 PUSH1 0x2 EXP SUB DUP9 AND DUP1 DUP6 MSTORE SWAP1 DUP4 MSTORE SWAP3 DUP2 SWAP1 KECCAK256 DUP7 SWAP1 SSTORE DUP1 MLOAD DUP7 DUP2 MSTORE SWAP1 MLOAD SWAP3 SWAP4 SWAP3 PUSH32 0x8C5BE1E5EBEC7D5BD14F71427D1E84F3DD0314C0F7B2291E5B200AC8C7C3B925 SWAP3 SWAP2 DUP2 SWAP1 SUB SWAP1 SWAP2 ADD SWAP1 LOG3 POP PUSH1 0x1 SWAP3 SWAP2 POP POP JUMP JUMPDEST PUSH1 0x6 SLOAD PUSH1 0x1 PUSH1 0xA0 PUSH1 0x2 EXP SUB AND DUP2 JUMP JUMPDEST PUSH1 0x0 PUSH1 0xD SLOAD PUSH1 0x0 EQ ISZERO PUSH2 0xDFE JUMPI POP PUSH1 0x0 PUSH2 0xE29 JUMP JUMPDEST PUSH2 0xE26 PUSH3 0xF4240 PUSH2 0xE1A PUSH1 0xD SLOAD DUP6 PUSH2 0x2D63 SWAP1 SWAP2 SWAP1 PUSH4 0xFFFFFFFF AND JUMP JUMPDEST SWAP1 PUSH4 0xFFFFFFFF PUSH2 0x2D91 AND JUMP JUMPDEST SWAP1 POP JUMPDEST SWAP2 SWAP1 POP JUMP JUMPDEST PUSH1 0x2 SLOAD SWAP1 JUMP JUMPDEST PUSH1 0x0 DUP1 DUP9 MLOAD DUP11 MLOAD EQ DUP1 ISZERO PUSH2 0xE49 JUMPI POP DUP8 MLOAD DUP11 MLOAD EQ JUMPDEST DUP1 ISZERO PUSH2 0xE56 JUMPI POP DUP7 MLOAD DUP11 MLOAD EQ JUMPDEST DUP1 ISZERO PUSH2 0xE63 JUMPI POP DUP6 MLOAD DUP11 MLOAD EQ JUMPDEST ISZERO ISZERO PUSH2 0xEB9 JUMPI PUSH1 0x40 DUP1 MLOAD PUSH1 0xE5 PUSH1 0x2 EXP PUSH3 0x461BCD MUL DUP2 MSTORE PUSH1 0x20 PUSH1 0x4 DUP3 ADD MSTORE PUSH1 0xF PUSH1 0x24 DUP3 ADD MSTORE PUSH32 0x6C656E677468206D69736D617463680000000000000000000000000000000000 PUSH1 0x44 DUP3 ADD MSTORE SWAP1 MLOAD SWAP1 DUP2 SWAP1 SUB PUSH1 0x64 ADD SWAP1 REVERT JUMPDEST DUP5 MLOAD DUP11 MLOAD EQ DUP1 ISZERO PUSH2 0xECB JUMPI POP DUP4 MLOAD DUP11 MLOAD EQ JUMPDEST DUP1 ISZERO PUSH2 0xED8 JUMPI POP DUP3 MLOAD DUP11 MLOAD EQ JUMPDEST ISZERO ISZERO PUSH2 0xF2E JUMPI PUSH1 0x40 DUP1 MLOAD PUSH1 0xE5 PUSH1 0x2 EXP PUSH3 0x461BCD MUL DUP2 MSTORE PUSH1 0x20 PUSH1 0x4 DUP3 ADD MSTORE PUSH1 0xF PUSH1 0x24 DUP3 ADD MSTORE PUSH32 0x6C656E677468206D69736D617463680000000000000000000000000000000000 PUSH1 0x44 DUP3 ADD MSTORE SWAP1 MLOAD SWAP1 DUP2 SWAP1 SUB PUSH1 0x64 ADD SWAP1 REVERT JUMPDEST POP PUSH1 0x0 JUMPDEST DUP10 MLOAD DUP2 LT ISZERO PUSH2 0x1061 JUMPI PUSH2 0x1003 DUP11 DUP3 DUP2 MLOAD DUP2 LT ISZERO ISZERO PUSH2 0xF4C JUMPI INVALID JUMPDEST SWAP1 PUSH1 0x20 ADD SWAP1 PUSH1 0x20 MUL ADD MLOAD DUP11 DUP4 DUP2 MLOAD DUP2 LT ISZERO ISZERO PUSH2 0xF64 JUMPI INVALID JUMPDEST SWAP1 PUSH1 0x20 ADD SWAP1 PUSH1 0x20 MUL ADD MLOAD DUP11 DUP5 DUP2 MLOAD DUP2 LT ISZERO ISZERO PUSH2 0xF7C JUMPI INVALID JUMPDEST SWAP1 PUSH1 0x20 ADD SWAP1 PUSH1 0x20 MUL ADD MLOAD DUP11 DUP6 DUP2 MLOAD DUP2 LT ISZERO ISZERO PUSH2 0xF94 JUMPI INVALID JUMPDEST SWAP1 PUSH1 0x20 ADD SWAP1 PUSH1 0x20 MUL ADD MLOAD DUP11 DUP7 DUP2 MLOAD DUP2 LT ISZERO ISZERO PUSH2 0xFAC JUMPI INVALID JUMPDEST SWAP1 PUSH1 0x20 ADD SWAP1 PUSH1 0x20 MUL ADD MLOAD DUP11 DUP8 DUP2 MLOAD DUP2 LT ISZERO ISZERO PUSH2 0xFC4 JUMPI INVALID JUMPDEST SWAP1 PUSH1 0x20 ADD SWAP1 PUSH1 0x20 MUL ADD MLOAD DUP11 DUP9 DUP2 MLOAD DUP2 LT ISZERO ISZERO PUSH2 0xFDC JUMPI INVALID JUMPDEST SWAP1 PUSH1 0x20 ADD SWAP1 PUSH1 0x20 MUL ADD MLOAD DUP11 DUP10 DUP2 MLOAD DUP2 LT ISZERO ISZERO PUSH2 0xFF4 JUMPI INVALID JUMPDEST SWAP1 PUSH1 0x20 ADD SWAP1 PUSH1 0x20 MUL ADD MLOAD PUSH2 0x2DB4 JUMP JUMPDEST ISZERO ISZERO PUSH2 0x1059 JUMPI PUSH1 0x40 DUP1 MLOAD PUSH1 0xE5 PUSH1 0x2 EXP PUSH3 0x461BCD MUL DUP2 MSTORE PUSH1 0x20 PUSH1 0x4 DUP3 ADD MSTORE PUSH1 0xF PUSH1 0x24 DUP3 ADD MSTORE PUSH32 0x6661696C6564207472616E736665720000000000000000000000000000000000 PUSH1 0x44 DUP3 ADD MSTORE SWAP1 MLOAD SWAP1 DUP2 SWAP1 SUB PUSH1 0x64 ADD SWAP1 REVERT JUMPDEST PUSH1 0x1 ADD PUSH2 0xF32 JUMP JUMPDEST POP PUSH1 0x1 SWAP10 SWAP9 POP POP POP POP POP POP POP POP POP JUMP JUMPDEST PUSH1 0x0 DUP1 PUSH1 0x0 DUP1 DUP10 MLOAD PUSH1 0x41 EQ ISZERO ISZERO PUSH2 0x10D2 JUMPI PUSH1 0x40 DUP1 MLOAD PUSH1 0xE5 PUSH1 0x2 EXP PUSH3 0x461BCD MUL DUP2 MSTORE PUSH1 0x20 PUSH1 0x4 DUP3 ADD MSTORE PUSH1 0x1F PUSH1 0x24 DUP3 ADD MSTORE PUSH32 0x7369676E61747572652073686F756C642068617665206C656E67746820363500 PUSH1 0x44 DUP3 ADD MSTORE SWAP1 MLOAD SWAP1 DUP2 SWAP1 SUB PUSH1 0x64 ADD SWAP1 REVERT JUMPDEST POP POP POP PUSH1 0x20 DUP8 ADD MLOAD PUSH1 0x40 DUP9 ADD MLOAD PUSH1 0x60 DUP10 ADD MLOAD PUSH1 0x0 BYTE PUSH2 0x10F7 DUP4 DUP4 DUP4 DUP13 DUP13 DUP13 DUP13 DUP13 PUSH2 0x2DB4 JUMP JUMPDEST ISZERO ISZERO PUSH2 0x1061 JUMPI PUSH1 0x40 DUP1 MLOAD PUSH1 0xE5 PUSH1 0x2 EXP PUSH3 0x461BCD MUL DUP2 MSTORE PUSH1 0x20 PUSH1 0x4 DUP3 ADD MSTORE PUSH1 0xF PUSH1 0x24 DUP3 ADD MSTORE PUSH32 0x6661696C6564207472616E736665720000000000000000000000000000000000 PUSH1 0x44 DUP3 ADD MSTORE SWAP1 MLOAD SWAP1 DUP2 SWAP1 SUB PUSH1 0x64 ADD SWAP1 REVERT JUMPDEST PUSH1 0x5 SLOAD PUSH1 0x0 SWAP1 PUSH1 0xA0 PUSH1 0x2 EXP SWAP1 DIV PUSH1 0xFF AND ISZERO PUSH2 0x11A0 JUMPI PUSH1 0x40 DUP1 MLOAD PUSH1 0xE5 PUSH1 0x2 EXP PUSH3 0x461BCD MUL DUP2 MSTORE PUSH1 0x20 PUSH1 0x4 DUP3 ADD MSTORE PUSH1 0xD PUSH1 0x24 DUP3 ADD MSTORE PUSH1 0x0 DUP1 MLOAD PUSH1 0x20 PUSH2 0x38BD DUP4 CODECOPY DUP2 MLOAD SWAP2 MSTORE PUSH1 0x44 DUP3 ADD MSTORE SWAP1 MLOAD SWAP1 DUP2 SWAP1 SUB PUSH1 0x64 ADD SWAP1 REVERT JUMPDEST PUSH1 0x1 PUSH1 0xA0 PUSH1 0x2 EXP SUB DUP4 AND ISZERO ISZERO PUSH2 0x1200 JUMPI PUSH1 0x40 DUP1 MLOAD PUSH1 0xE5 PUSH1 0x2 EXP PUSH3 0x461BCD MUL DUP2 MSTORE PUSH1 0x20 PUSH1 0x4 DUP3 ADD MSTORE PUSH1 0x1F PUSH1 0x24 DUP3 ADD MSTORE PUSH32 0x63616E6E6F74207472616E7366657220746F2061646472657373207A65726F00 PUSH1 0x44 DUP3 ADD MSTORE SWAP1 MLOAD SWAP1 DUP2 SWAP1 SUB PUSH1 0x64 ADD SWAP1 REVERT JUMPDEST PUSH1 0x1 PUSH1 0xA0 PUSH1 0x2 EXP SUB DUP4 AND PUSH1 0x0 SWAP1 DUP2 MSTORE PUSH1 0x7 PUSH1 0x20 MSTORE PUSH1 0x40 SWAP1 KECCAK256 SLOAD PUSH1 0xFF AND ISZERO DUP1 ISZERO PUSH2 0x1242 JUMPI POP PUSH1 0x1 PUSH1 0xA0 PUSH1 0x2 EXP SUB DUP5 AND PUSH1 0x0 SWAP1 DUP2 MSTORE PUSH1 0x7 PUSH1 0x20 MSTORE PUSH1 0x40 SWAP1 KECCAK256 SLOAD PUSH1 0xFF AND ISZERO JUMPDEST DUP1 ISZERO PUSH2 0x125E JUMPI POP CALLER PUSH1 0x0 SWAP1 DUP2 MSTORE PUSH1 0x7 PUSH1 0x20 MSTORE PUSH1 0x40 SWAP1 KECCAK256 SLOAD PUSH1 0xFF AND ISZERO JUMPDEST ISZERO ISZERO PUSH2 0x12A2 JUMPI PUSH1 0x40 DUP1 MLOAD PUSH1 0xE5 PUSH1 0x2 EXP PUSH3 0x461BCD MUL DUP2 MSTORE PUSH1 0x20 PUSH1 0x4 DUP3 ADD MSTORE PUSH1 0xE PUSH1 0x24 DUP3 ADD MSTORE PUSH1 0x0 DUP1 MLOAD PUSH1 0x20 PUSH2 0x389D DUP4 CODECOPY DUP2 MLOAD SWAP2 MSTORE PUSH1 0x44 DUP3 ADD MSTORE SWAP1 MLOAD SWAP1 DUP2 SWAP1 SUB PUSH1 0x64 ADD SWAP1 REVERT JUMPDEST PUSH1 0x1 PUSH1 0xA0 PUSH1 0x2 EXP SUB DUP5 AND PUSH1 0x0 SWAP1 DUP2 MSTORE PUSH1 0x1 PUSH1 0x20 MSTORE PUSH1 0x40 SWAP1 KECCAK256 SLOAD DUP3 GT ISZERO PUSH2 0x1312 JUMPI PUSH1 0x40 DUP1 MLOAD PUSH1 0xE5 PUSH1 0x2 EXP PUSH3 0x461BCD MUL DUP2 MSTORE PUSH1 0x20 PUSH1 0x4 DUP3 ADD MSTORE PUSH1 0x12 PUSH1 0x24 DUP3 ADD MSTORE PUSH32 0x696E73756666696369656E742066756E64730000000000000000000000000000 PUSH1 0x44 DUP3 ADD MSTORE SWAP1 MLOAD SWAP1 DUP2 SWAP1 SUB PUSH1 0x64 ADD SWAP1 REVERT JUMPDEST PUSH1 0x1 PUSH1 0xA0 PUSH1 0x2 EXP SUB DUP5 AND PUSH1 0x0 SWAP1 DUP2 MSTORE PUSH1 0x3 PUSH1 0x20 SWAP1 DUP2 MSTORE PUSH1 0x40 DUP1 DUP4 KECCAK256 CALLER DUP5 MSTORE SWAP1 SWAP2 MSTORE SWAP1 KECCAK256 SLOAD DUP3 GT ISZERO PUSH2 0x138D JUMPI PUSH1 0x40 DUP1 MLOAD PUSH1 0xE5 PUSH1 0x2 EXP PUSH3 0x461BCD MUL DUP2 MSTORE PUSH1 0x20 PUSH1 0x4 DUP3 ADD MSTORE PUSH1 0x16 PUSH1 0x24 DUP3 ADD MSTORE PUSH32 0x696E73756666696369656E7420616C6C6F77616E636500000000000000000000 PUSH1 0x44 DUP3 ADD MSTORE SWAP1 MLOAD SWAP1 DUP2 SWAP1 SUB PUSH1 0x64 ADD SWAP1 REVERT JUMPDEST PUSH1 0x1 PUSH1 0xA0 PUSH1 0x2 EXP SUB DUP5 AND PUSH1 0x0 SWAP1 DUP2 MSTORE PUSH1 0x3 PUSH1 0x20 SWAP1 DUP2 MSTORE PUSH1 0x40 DUP1 DUP4 KECCAK256 CALLER DUP5 MSTORE SWAP1 SWAP2 MSTORE SWAP1 KECCAK256 SLOAD PUSH2 0x13C1 SWAP1 DUP4 PUSH4 0xFFFFFFFF PUSH2 0x36EE AND JUMP JUMPDEST PUSH1 0x1 PUSH1 0xA0 PUSH1 0x2 EXP SUB DUP6 AND PUSH1 0x0 SWAP1 DUP2 MSTORE PUSH1 0x3 PUSH1 0x20 SWAP1 DUP2 MSTORE PUSH1 0x40 DUP1 DUP4 KECCAK256 CALLER DUP5 MSTORE SWAP1 SWAP2 MSTORE SWAP1 KECCAK256 SSTORE PUSH2 0x13F0 DUP5 DUP5 DUP5 PUSH2 0x3705 JUMP JUMPDEST POP PUSH1 0x1 SWAP5 SWAP4 POP POP POP POP JUMP JUMPDEST PUSH1 0x40 DUP1 MLOAD PUSH32 0x454950373132446F6D61696E28737472696E67206E616D652C61646472657373 DUP2 MSTORE PUSH32 0x20766572696679696E67436F6E74726163742900000000000000000000000000 PUSH1 0x20 DUP1 DUP4 ADD SWAP2 SWAP1 SWAP2 MSTORE DUP3 MLOAD SWAP2 DUP3 SWAP1 SUB PUSH1 0x33 ADD DUP3 KECCAK256 DUP3 DUP5 ADD DUP5 MSTORE PUSH1 0xA DUP1 DUP5 MSTORE PUSH32 0x5061786F7320476F6C6400000000000000000000000000000000000000000000 SWAP3 DUP5 ADD SWAP3 DUP4 MSTORE SWAP4 MLOAD SWAP1 SWAP4 SWAP1 SWAP2 DUP3 SWAP2 DUP1 DUP4 DUP4 JUMPDEST PUSH1 0x20 DUP4 LT PUSH2 0x14B3 JUMPI DUP1 MLOAD DUP3 MSTORE PUSH1 0x1F NOT SWAP1 SWAP3 ADD SWAP2 PUSH1 0x20 SWAP2 DUP3 ADD SWAP2 ADD PUSH2 0x1494 JUMP JUMPDEST MLOAD DUP2 MLOAD PUSH1 0x20 SWAP4 DUP5 SUB PUSH2 0x100 EXP PUSH1 0x0 NOT ADD DUP1 NOT SWAP1 SWAP3 AND SWAP2 AND OR SWAP1 MSTORE PUSH1 0x40 DUP1 MLOAD SWAP3 SWAP1 SWAP5 ADD DUP3 SWAP1 SUB DUP3 KECCAK256 DUP3 DUP3 ADD SWAP8 SWAP1 SWAP8 MSTORE DUP2 DUP5 ADD SWAP7 SWAP1 SWAP7 MSTORE ADDRESS PUSH1 0x60 DUP1 DUP4 ADD SWAP2 SWAP1 SWAP2 MSTORE DUP4 MLOAD DUP1 DUP4 SUB SWAP1 SWAP2 ADD DUP2 MSTORE PUSH1 0x80 SWAP1 SWAP2 ADD SWAP3 DUP4 SWAP1 MSTORE DUP1 MLOAD SWAP1 SWAP6 SWAP3 SWAP5 POP DUP5 SWAP4 POP SWAP2 DUP6 ADD SWAP2 SWAP1 POP DUP1 DUP4 DUP4 JUMPDEST PUSH1 0x20 DUP4 LT PUSH2 0x1538 JUMPI DUP1 MLOAD DUP3 MSTORE PUSH1 0x1F NOT SWAP1 SWAP3 ADD SWAP2 PUSH1 0x20 SWAP2 DUP3 ADD SWAP2 ADD PUSH2 0x1519 JUMP JUMPDEST MLOAD DUP2 MLOAD PUSH1 0x20 SWAP4 SWAP1 SWAP4 SUB PUSH2 0x100 EXP PUSH1 0x0 NOT ADD DUP1 NOT SWAP1 SWAP2 AND SWAP3 AND SWAP2 SWAP1 SWAP2 OR SWAP1 MSTORE PUSH1 0x40 MLOAD SWAP3 ADD DUP3 SWAP1 SUB SWAP1 SWAP2 KECCAK256 PUSH1 0xC SSTORE POP POP POP JUMP JUMPDEST PUSH1 0x12 DUP2 JUMP JUMPDEST PUSH1 0xE SLOAD PUSH1 0x0 SWAP1 PUSH1 0x1 PUSH1 0xA0 PUSH1 0x2 EXP SUB AND CALLER EQ DUP1 PUSH2 0x1594 JUMPI POP PUSH1 0x4 SLOAD PUSH1 0x1 PUSH1 0xA0 PUSH1 0x2 EXP SUB AND CALLER EQ JUMPDEST ISZERO ISZERO PUSH2 0x15EA JUMPI PUSH1 0x40 DUP1 MLOAD PUSH1 0xE5 PUSH1 0x2 EXP PUSH3 0x461BCD MUL DUP2 MSTORE PUSH1 0x20 PUSH1 0x4 DUP3 ADD MSTORE PUSH1 0x1B PUSH1 0x24 DUP3 ADD MSTORE PUSH32 0x6F6E6C7920466565436F6E74726F6C6C6572206F72204F776E65720000000000 PUSH1 0x44 DUP3 ADD MSTORE SWAP1 MLOAD SWAP1 DUP2 SWAP1 SUB PUSH1 0x64 ADD SWAP1 REVERT JUMPDEST PUSH1 0x1 PUSH1 0xA0 PUSH1 0x2 EXP SUB DUP3 AND ISZERO ISZERO PUSH2 0x1670 JUMPI PUSH1 0x40 DUP1 MLOAD PUSH1 0xE5 PUSH1 0x2 EXP PUSH3 0x461BCD MUL DUP2 MSTORE PUSH1 0x20 PUSH1 0x4 DUP3 ADD MSTORE PUSH1 0x29 PUSH1 0x24 DUP3 ADD MSTORE PUSH32 0x63616E6E6F74207365742066656520636F6E74726F6C6C657220746F20616464 PUSH1 0x44 DUP3 ADD MSTORE PUSH32 0x72657373207A65726F0000000000000000000000000000000000000000000000 PUSH1 0x64 DUP3 ADD MSTORE SWAP1 MLOAD SWAP1 DUP2 SWAP1 SUB PUSH1 0x84 ADD SWAP1 REVERT JUMPDEST POP PUSH1 0xE DUP1 SLOAD PUSH1 0x1 PUSH1 0xA0 PUSH1 0x2 EXP SUB DUP4 DUP2 AND PUSH1 0x1 PUSH1 0xA0 PUSH1 0x2 EXP SUB NOT DUP4 AND OR SWAP3 DUP4 SWAP1 SSTORE PUSH1 0x40 MLOAD SWAP2 DUP2 AND SWAP3 AND SWAP1 DUP3 SWAP1 PUSH32 0x9F67A87FDD653DFCDB36C8E3F851B597FB84328E3E90B118AF01DC93A94E2EB5 SWAP1 PUSH1 0x0 SWAP1 LOG3 POP POP JUMP JUMPDEST PUSH1 0x4 SLOAD PUSH1 0x1 PUSH1 0xA0 PUSH1 0x2 EXP SUB AND CALLER EQ PUSH2 0x1715 JUMPI PUSH1 0x40 DUP1 MLOAD PUSH1 0xE5 PUSH1 0x2 EXP PUSH3 0x461BCD MUL DUP2 MSTORE PUSH1 0x20 PUSH1 0x4 DUP3 ADD MSTORE PUSH1 0x9 PUSH1 0x24 DUP3 ADD MSTORE PUSH1 0x0 DUP1 MLOAD PUSH1 0x20 PUSH2 0x38FD DUP4 CODECOPY DUP2 MLOAD SWAP2 MSTORE PUSH1 0x44 DUP3 ADD MSTORE SWAP1 MLOAD SWAP1 DUP2 SWAP1 SUB PUSH1 0x64 ADD SWAP1 REVERT JUMPDEST PUSH1 0x5 SLOAD PUSH1 0xA0 PUSH1 0x2 EXP SWAP1 DIV PUSH1 0xFF AND ISZERO ISZERO PUSH2 0x1778 JUMPI PUSH1 0x40 DUP1 MLOAD PUSH1 0xE5 PUSH1 0x2 EXP PUSH3 0x461BCD MUL DUP2 MSTORE PUSH1 0x20 PUSH1 0x4 DUP3 ADD MSTORE PUSH1 0x10 PUSH1 0x24 DUP3 ADD MSTORE PUSH32 0x616C726561647920756E70617573656400000000000000000000000000000000 PUSH1 0x44 DUP3 ADD MSTORE SWAP1 MLOAD SWAP1 DUP2 SWAP1 SUB PUSH1 0x64 ADD SWAP1 REVERT JUMPDEST PUSH1 0x5 DUP1 SLOAD PUSH21 0xFF0000000000000000000000000000000000000000 NOT AND SWAP1 SSTORE PUSH1 0x40 MLOAD PUSH32 0x7805862F689E2F13DF9F062FF482AD3AD112ACA9E0847911ED832E158C525B33 SWAP1 PUSH1 0x0 SWAP1 LOG1 JUMP JUMPDEST PUSH1 0xE SLOAD PUSH1 0x0 SWAP1 PUSH1 0x1 PUSH1 0xA0 PUSH1 0x2 EXP SUB AND CALLER EQ PUSH2 0x1826 JUMPI PUSH1 0x40 DUP1 MLOAD PUSH1 0xE5 PUSH1 0x2 EXP PUSH3 0x461BCD MUL DUP2 MSTORE PUSH1 0x20 PUSH1 0x4 DUP3 ADD MSTORE PUSH1 0x12 PUSH1 0x24 DUP3 ADD MSTORE PUSH32 0x6F6E6C7920466565436F6E74726F6C6C65720000000000000000000000000000 PUSH1 0x44 DUP3 ADD MSTORE SWAP1 MLOAD SWAP1 DUP2 SWAP1 SUB PUSH1 0x64 ADD SWAP1 REVERT JUMPDEST PUSH3 0xF4240 DUP3 GT ISZERO PUSH2 0x1881 JUMPI PUSH1 0x40 DUP1 MLOAD PUSH1 0xE5 PUSH1 0x2 EXP PUSH3 0x461BCD MUL DUP2 MSTORE PUSH1 0x20 PUSH1 0x4 DUP3 ADD MSTORE PUSH1 0x1E PUSH1 0x24 DUP3 ADD MSTORE PUSH32 0x63616E6E6F74207365742066656520726174652061626F766520313030250000 PUSH1 0x44 DUP3 ADD MSTORE SWAP1 MLOAD SWAP1 DUP2 SWAP1 SUB PUSH1 0x64 ADD SWAP1 REVERT JUMPDEST POP PUSH1 0xD DUP1 SLOAD SWAP1 DUP3 SWAP1 SSTORE PUSH1 0x40 MLOAD DUP3 SWAP1 DUP3 SWAP1 PUSH32 0x959EC4191DB1BD972BFBC60DC7D735D4CFB897CA3FD297F4EBD6EE918FEB84D4 SWAP1 PUSH1 0x0 SWAP1 LOG3 POP POP JUMP JUMPDEST PUSH1 0x6 SLOAD PUSH1 0x1 PUSH1 0xA0 PUSH1 0x2 EXP SUB AND CALLER EQ PUSH2 0x191D JUMPI PUSH1 0x40 DUP1 MLOAD PUSH1 0xE5 PUSH1 0x2 EXP PUSH3 0x461BCD MUL DUP2 MSTORE PUSH1 0x20 PUSH1 0x4 DUP3 ADD MSTORE PUSH1 0x17 PUSH1 0x24 DUP3 ADD MSTORE PUSH32 0x6F6E6C79417373657450726F74656374696F6E526F6C65000000000000000000 PUSH1 0x44 DUP3 ADD MSTORE SWAP1 MLOAD SWAP1 DUP2 SWAP1 SUB PUSH1 0x64 ADD SWAP1 REVERT JUMPDEST PUSH1 0x1 PUSH1 0xA0 PUSH1 0x2 EXP SUB DUP2 AND PUSH1 0x0 SWAP1 DUP2 MSTORE PUSH1 0x7 PUSH1 0x20 MSTORE PUSH1 0x40 SWAP1 KECCAK256 SLOAD PUSH1 0xFF AND ISZERO ISZERO PUSH2 0x198F JUMPI PUSH1 0x40 DUP1 MLOAD PUSH1 0xE5 PUSH1 0x2 EXP PUSH3 0x461BCD MUL DUP2 MSTORE PUSH1 0x20 PUSH1 0x4 DUP3 ADD MSTORE PUSH1 0x18 PUSH1 0x24 DUP3 ADD MSTORE PUSH32 0x6164647265737320616C726561647920756E66726F7A656E0000000000000000 PUSH1 0x44 DUP3 ADD MSTORE SWAP1 MLOAD SWAP1 DUP2 SWAP1 SUB PUSH1 0x64 ADD SWAP1 REVERT JUMPDEST PUSH1 0x1 PUSH1 0xA0 PUSH1 0x2 EXP SUB DUP2 AND PUSH1 0x0 DUP2 DUP2 MSTORE PUSH1 0x7 PUSH1 0x20 MSTORE PUSH1 0x40 DUP1 DUP3 KECCAK256 DUP1 SLOAD PUSH1 0xFF NOT AND SWAP1 SSTORE MLOAD PUSH32 0xC3776B472EBF54114339EEC9E4DC924E7CE307A97F5C1EE72B6D474E6E5E8B7C SWAP2 SWAP1 LOG2 POP JUMP JUMPDEST PUSH1 0xF SLOAD PUSH1 0x1 PUSH1 0xA0 PUSH1 0x2 EXP SUB AND DUP2 JUMP JUMPDEST PUSH1 0x5 SLOAD PUSH1 0x0 SWAP1 PUSH1 0x1 PUSH1 0xA0 PUSH1 0x2 EXP SUB AND CALLER EQ PUSH2 0x1A4C JUMPI PUSH1 0x40 DUP1 MLOAD PUSH1 0xE5 PUSH1 0x2 EXP PUSH3 0x461BCD MUL DUP2 MSTORE PUSH1 0x20 PUSH1 0x4 DUP3 ADD MSTORE PUSH1 0x11 PUSH1 0x24 DUP3 ADD MSTORE PUSH32 0x6F6E6C7950726F706F7365644F776E6572000000000000000000000000000000 PUSH1 0x44 DUP3 ADD MSTORE SWAP1 MLOAD SWAP1 DUP2 SWAP1 SUB PUSH1 0x64 ADD SWAP1 REVERT JUMPDEST POP PUSH1 0x4 DUP1 SLOAD PUSH1 0x5 DUP1 SLOAD PUSH1 0x1 PUSH1 0xA0 PUSH1 0x2 EXP SUB NOT DUP1 DUP5 AND PUSH1 0x1 PUSH1 0xA0 PUSH1 0x2 EXP SUB DUP4 DUP2 AND SWAP2 SWAP1 SWAP2 OR SWAP6 DUP7 SWAP1 SSTORE SWAP2 AND SWAP1 SWAP2 SSTORE PUSH1 0x40 MLOAD SWAP2 DUP2 AND SWAP3 AND SWAP1 DUP3 SWAP1 PUSH32 0x8BE0079C531659141344CD1FD0A4F28419497F9722A3DAAFE3B4186F6B6457E0 SWAP1 PUSH1 0x0 SWAP1 LOG3 POP JUMP JUMPDEST PUSH1 0x8 SLOAD PUSH1 0x1 PUSH1 0xA0 PUSH1 0x2 EXP SUB AND CALLER EQ DUP1 PUSH2 0x1AD0 JUMPI POP PUSH1 0x4 SLOAD PUSH1 0x1 PUSH1 0xA0 PUSH1 0x2 EXP SUB AND CALLER EQ JUMPDEST ISZERO ISZERO PUSH2 0x1B26 JUMPI PUSH1 0x40 DUP1 MLOAD PUSH1 0xE5 PUSH1 0x2 EXP PUSH3 0x461BCD MUL DUP2 MSTORE PUSH1 0x20 PUSH1 0x4 DUP3 ADD MSTORE PUSH1 0x1E PUSH1 0x24 DUP3 ADD MSTORE PUSH32 0x6F6E6C7920537570706C79436F6E74726F6C6C6572206F72204F776E65720000 PUSH1 0x44 DUP3 ADD MSTORE SWAP1 MLOAD SWAP1 DUP2 SWAP1 SUB PUSH1 0x64 ADD SWAP1 REVERT JUMPDEST PUSH1 0x1 PUSH1 0xA0 PUSH1 0x2 EXP SUB DUP2 AND ISZERO ISZERO PUSH2 0x1BAC JUMPI PUSH1 0x40 DUP1 MLOAD PUSH1 0xE5 PUSH1 0x2 EXP PUSH3 0x461BCD MUL DUP2 MSTORE PUSH1 0x20 PUSH1 0x4 DUP3 ADD MSTORE PUSH1 0x2C PUSH1 0x24 DUP3 ADD MSTORE PUSH32 0x63616E6E6F742073657420737570706C7920636F6E74726F6C6C657220746F20 PUSH1 0x44 DUP3 ADD MSTORE PUSH32 0x61646472657373207A65726F0000000000000000000000000000000000000000 PUSH1 0x64 DUP3 ADD MSTORE SWAP1 MLOAD SWAP1 DUP2 SWAP1 SUB PUSH1 0x84 ADD SWAP1 REVERT JUMPDEST PUSH1 0x8 SLOAD PUSH1 0x40 MLOAD PUSH1 0x1 PUSH1 0xA0 PUSH1 0x2 EXP SUB DUP1 DUP5 AND SWAP3 AND SWAP1 PUSH32 0x40D53B0B666E4424F29D55244E7E171A1DC332ACC11D04ED4ABD884629D8CC97 SWAP1 PUSH1 0x0 SWAP1 LOG3 PUSH1 0x8 DUP1 SLOAD PUSH1 0x1 PUSH1 0xA0 PUSH1 0x2 EXP SUB NOT AND PUSH1 0x1 PUSH1 0xA0 PUSH1 0x2 EXP SUB SWAP3 SWAP1 SWAP3 AND SWAP2 SWAP1 SWAP2 OR SWAP1 SSTORE JUMP JUMPDEST PUSH3 0xF4240 DUP2 JUMP JUMPDEST PUSH1 0x5 SLOAD PUSH1 0xA0 PUSH1 0x2 EXP SWAP1 DIV PUSH1 0xFF AND DUP2 JUMP JUMPDEST PUSH1 0xE SLOAD PUSH1 0x1 PUSH1 0xA0 PUSH1 0x2 EXP SUB AND DUP2 JUMP JUMPDEST PUSH1 0x1 PUSH1 0xA0 PUSH1 0x2 EXP SUB AND PUSH1 0x0 SWAP1 DUP2 MSTORE PUSH1 0x1 PUSH1 0x20 MSTORE PUSH1 0x40 SWAP1 KECCAK256 SLOAD SWAP1 JUMP JUMPDEST PUSH1 0x0 SLOAD PUSH1 0xFF AND ISZERO PUSH2 0x1CA4 JUMPI PUSH1 0x40 DUP1 MLOAD PUSH1 0xE5 PUSH1 0x2 EXP PUSH3 0x461BCD MUL DUP2 MSTORE PUSH1 0x20 PUSH1 0x4 DUP3 ADD MSTORE PUSH1 0x13 PUSH1 0x24 DUP3 ADD MSTORE PUSH32 0x616C726561647920696E697469616C697A656400000000000000000000000000 PUSH1 0x44 DUP3 ADD MSTORE SWAP1 MLOAD SWAP1 DUP2 SWAP1 SUB PUSH1 0x64 ADD SWAP1 REVERT JUMPDEST PUSH1 0x4 DUP1 SLOAD CALLER PUSH1 0x1 PUSH1 0xA0 PUSH1 0x2 EXP SUB NOT SWAP2 DUP3 AND DUP2 OR SWAP1 SWAP3 SSTORE PUSH1 0x5 DUP1 SLOAD DUP3 AND SWAP1 SSTORE PUSH1 0x6 DUP1 SLOAD DUP3 AND SWAP1 SSTORE PUSH1 0x0 PUSH1 0x2 DUP2 SWAP1 SSTORE PUSH1 0x8 DUP1 SLOAD DUP4 AND DUP5 OR SWAP1 SSTORE PUSH1 0xD SSTORE PUSH1 0xE DUP1 SLOAD DUP3 AND DUP4 OR SWAP1 SSTORE PUSH1 0xF DUP1 SLOAD SWAP1 SWAP2 AND SWAP1 SWAP2 OR SWAP1 SSTORE PUSH2 0x1CFC PUSH2 0x13FB JUMP JUMPDEST PUSH1 0x0 DUP1 SLOAD PUSH1 0xFF NOT AND PUSH1 0x1 OR SWAP1 SSTORE JUMP JUMPDEST PUSH1 0x4 SLOAD PUSH1 0x1 PUSH1 0xA0 PUSH1 0x2 EXP SUB AND CALLER EQ PUSH2 0x1D5B JUMPI PUSH1 0x40 DUP1 MLOAD PUSH1 0xE5 PUSH1 0x2 EXP PUSH3 0x461BCD MUL DUP2 MSTORE PUSH1 0x20 PUSH1 0x4 DUP3 ADD MSTORE PUSH1 0x9 PUSH1 0x24 DUP3 ADD MSTORE PUSH1 0x0 DUP1 MLOAD PUSH1 0x20 PUSH2 0x38FD DUP4 CODECOPY DUP2 MLOAD SWAP2 MSTORE PUSH1 0x44 DUP3 ADD MSTORE SWAP1 MLOAD SWAP1 DUP2 SWAP1 SUB PUSH1 0x64 ADD SWAP1 REVERT JUMPDEST PUSH1 0x5 SLOAD PUSH1 0xA0 PUSH1 0x2 EXP SWAP1 DIV PUSH1 0xFF AND ISZERO PUSH2 0x1DBD JUMPI PUSH1 0x40 DUP1 MLOAD PUSH1 0xE5 PUSH1 0x2 EXP PUSH3 0x461BCD MUL DUP2 MSTORE PUSH1 0x20 PUSH1 0x4 DUP3 ADD MSTORE PUSH1 0xE PUSH1 0x24 DUP3 ADD MSTORE PUSH32 0x616C726561647920706175736564000000000000000000000000000000000000 PUSH1 0x44 DUP3 ADD MSTORE SWAP1 MLOAD SWAP1 DUP2 SWAP1 SUB PUSH1 0x64 ADD SWAP1 REVERT JUMPDEST PUSH1 0x5 DUP1 SLOAD PUSH21 0xFF0000000000000000000000000000000000000000 NOT AND PUSH1 0xA0 PUSH1 0x2 EXP OR SWAP1 SSTORE PUSH1 0x40 MLOAD PUSH32 0x6985A02210A168E66602D3235CB6DB0E70F92B3BA4D376A33C0F3D9434BFF625 SWAP1 PUSH1 0x0 SWAP1 LOG1 JUMP JUMPDEST PUSH1 0x1 PUSH1 0xA0 PUSH1 0x2 EXP SUB AND PUSH1 0x0 SWAP1 DUP2 MSTORE PUSH1 0xB PUSH1 0x20 MSTORE PUSH1 0x40 SWAP1 KECCAK256 SLOAD SWAP1 JUMP JUMPDEST PUSH1 0x6 SLOAD PUSH1 0x1 PUSH1 0xA0 PUSH1 0x2 EXP SUB AND CALLER EQ DUP1 PUSH2 0x1E4A JUMPI POP PUSH1 0x4 SLOAD PUSH1 0x1 PUSH1 0xA0 PUSH1 0x2 EXP SUB AND CALLER EQ JUMPDEST ISZERO ISZERO PUSH2 0x1EC6 JUMPI PUSH1 0x40 DUP1 MLOAD PUSH1 0xE5 PUSH1 0x2 EXP PUSH3 0x461BCD MUL DUP2 MSTORE PUSH1 0x20 PUSH1 0x4 DUP3 ADD MSTORE PUSH1 0x21 PUSH1 0x24 DUP3 ADD MSTORE PUSH32 0x6F6E6C7920617373657450726F74656374696F6E526F6C65206F72204F776E65 PUSH1 0x44 DUP3 ADD MSTORE PUSH32 0x7200000000000000000000000000000000000000000000000000000000000000 PUSH1 0x64 DUP3 ADD MSTORE SWAP1 MLOAD SWAP1 DUP2 SWAP1 SUB PUSH1 0x84 ADD SWAP1 REVERT JUMPDEST PUSH1 0x6 SLOAD PUSH1 0x40 MLOAD PUSH1 0x1 PUSH1 0xA0 PUSH1 0x2 EXP SUB DUP1 DUP5 AND SWAP3 AND SWAP1 PUSH32 0xD0C36A0AC0FE0D375386BD568FA2947A2DAE7523A0A0CFDAB20B7532A105BD1B SWAP1 PUSH1 0x0 SWAP1 LOG3 PUSH1 0x6 DUP1 SLOAD PUSH1 0x1 PUSH1 0xA0 PUSH1 0x2 EXP SUB NOT AND PUSH1 0x1 PUSH1 0xA0 PUSH1 0x2 EXP SUB SWAP3 SWAP1 SWAP3 AND SWAP2 SWAP1 SWAP2 OR SWAP1 SSTORE JUMP JUMPDEST PUSH1 0x6 SLOAD PUSH1 0x1 PUSH1 0xA0 PUSH1 0x2 EXP SUB AND CALLER EQ PUSH2 0x1F84 JUMPI PUSH1 0x40 DUP1 MLOAD PUSH1 0xE5 PUSH1 0x2 EXP PUSH3 0x461BCD MUL DUP2 MSTORE PUSH1 0x20 PUSH1 0x4 DUP3 ADD MSTORE PUSH1 0x17 PUSH1 0x24 DUP3 ADD MSTORE PUSH32 0x6F6E6C79417373657450726F74656374696F6E526F6C65000000000000000000 PUSH1 0x44 DUP3 ADD MSTORE SWAP1 MLOAD SWAP1 DUP2 SWAP1 SUB PUSH1 0x64 ADD SWAP1 REVERT JUMPDEST PUSH1 0x1 PUSH1 0xA0 PUSH1 0x2 EXP SUB DUP2 AND PUSH1 0x0 SWAP1 DUP2 MSTORE PUSH1 0x7 PUSH1 0x20 MSTORE PUSH1 0x40 SWAP1 KECCAK256 SLOAD PUSH1 0xFF AND ISZERO PUSH2 0x1FF5 JUMPI PUSH1 0x40 DUP1 MLOAD PUSH1 0xE5 PUSH1 0x2 EXP PUSH3 0x461BCD MUL DUP2 MSTORE PUSH1 0x20 PUSH1 0x4 DUP3 ADD MSTORE PUSH1 0x16 PUSH1 0x24 DUP3 ADD MSTORE PUSH32 0x6164647265737320616C72656164792066726F7A656E00000000000000000000 PUSH1 0x44 DUP3 ADD MSTORE SWAP1 MLOAD SWAP1 DUP2 SWAP1 SUB PUSH1 0x64 ADD SWAP1 REVERT JUMPDEST PUSH1 0x1 PUSH1 0xA0 PUSH1 0x2 EXP SUB DUP2 AND PUSH1 0x0 DUP2 DUP2 MSTORE PUSH1 0x7 PUSH1 0x20 MSTORE PUSH1 0x40 DUP1 DUP3 KECCAK256 DUP1 SLOAD PUSH1 0xFF NOT AND PUSH1 0x1 OR SWAP1 SSTORE MLOAD PUSH32 0x90811A8EDD3B3C17EEAEFFFC17F639CC69145D41A359C9843994DC2538203690 SWAP2 SWAP1 LOG2 POP JUMP JUMPDEST PUSH1 0x4 SLOAD PUSH1 0x1 PUSH1 0xA0 PUSH1 0x2 EXP SUB AND DUP2 JUMP JUMPDEST PUSH1 0x40 DUP1 MLOAD DUP1 DUP3 ADD SWAP1 SWAP2 MSTORE PUSH1 0x4 DUP2 MSTORE PUSH32 0x5041584700000000000000000000000000000000000000000000000000000000 PUSH1 0x20 DUP3 ADD MSTORE DUP2 JUMP JUMPDEST PUSH1 0xD SLOAD DUP2 JUMP JUMPDEST PUSH1 0x9 SLOAD PUSH1 0x1 PUSH1 0xA0 PUSH1 0x2 EXP SUB AND CALLER EQ DUP1 PUSH2 0x20B0 JUMPI POP PUSH1 0x4 SLOAD PUSH1 0x1 PUSH1 0xA0 PUSH1 0x2 EXP SUB AND CALLER EQ JUMPDEST ISZERO ISZERO PUSH2 0x2106 JUMPI PUSH1 0x40 DUP1 MLOAD PUSH1 0xE5 PUSH1 0x2 EXP PUSH3 0x461BCD MUL DUP2 MSTORE PUSH1 0x20 PUSH1 0x4 DUP3 ADD MSTORE PUSH1 0x19 PUSH1 0x24 DUP3 ADD MSTORE PUSH32 0x6F6E6C792057686974656C6973746572206F72204F776E657200000000000000 PUSH1 0x44 DUP3 ADD MSTORE SWAP1 MLOAD SWAP1 DUP2 SWAP1 SUB PUSH1 0x64 ADD SWAP1 REVERT JUMPDEST PUSH1 0x9 DUP1 SLOAD PUSH1 0x1 PUSH1 0xA0 PUSH1 0x2 EXP SUB NOT AND PUSH1 0x1 PUSH1 0xA0 PUSH1 0x2 EXP SUB DUP4 DUP2 AND SWAP2 DUP3 OR SWAP3 DUP4 SWAP1 SSTORE PUSH1 0x40 MLOAD SWAP2 SWAP3 AND SWAP1 PUSH32 0x54E20B07412504AEE4D17519747AE2F01B9924F7F30059793FE5576C4220A0C3 SWAP1 PUSH1 0x0 SWAP1 LOG3 POP JUMP JUMPDEST PUSH1 0x8 SLOAD PUSH1 0x0 SWAP1 PUSH1 0x1 PUSH1 0xA0 PUSH1 0x2 EXP SUB AND CALLER EQ PUSH2 0x21BB JUMPI PUSH1 0x40 DUP1 MLOAD PUSH1 0xE5 PUSH1 0x2 EXP PUSH3 0x461BCD MUL DUP2 MSTORE PUSH1 0x20 PUSH1 0x4 DUP3 ADD MSTORE PUSH1 0x14 PUSH1 0x24 DUP3 ADD MSTORE PUSH32 0x6F6E6C79537570706C79436F6E74726F6C6C6572000000000000000000000000 PUSH1 0x44 DUP3 ADD MSTORE SWAP1 MLOAD SWAP1 DUP2 SWAP1 SUB PUSH1 0x64 ADD SWAP1 REVERT JUMPDEST PUSH1 0x8 SLOAD PUSH1 0x1 PUSH1 0xA0 PUSH1 0x2 EXP SUB AND PUSH1 0x0 SWAP1 DUP2 MSTORE PUSH1 0x1 PUSH1 0x20 MSTORE PUSH1 0x40 SWAP1 KECCAK256 SLOAD DUP3 GT ISZERO PUSH2 0x222D JUMPI PUSH1 0x40 DUP1 MLOAD PUSH1 0xE5 PUSH1 0x2 EXP PUSH3 0x461BCD MUL DUP2 MSTORE PUSH1 0x20 PUSH1 0x4 DUP3 ADD MSTORE PUSH1 0x11 PUSH1 0x24 DUP3 ADD MSTORE PUSH32 0x6E6F7420656E6F75676820737570706C79000000000000000000000000000000 PUSH1 0x44 DUP3 ADD MSTORE SWAP1 MLOAD SWAP1 DUP2 SWAP1 SUB PUSH1 0x64 ADD SWAP1 REVERT JUMPDEST PUSH1 0x8 SLOAD PUSH1 0x1 PUSH1 0xA0 PUSH1 0x2 EXP SUB AND PUSH1 0x0 SWAP1 DUP2 MSTORE PUSH1 0x1 PUSH1 0x20 MSTORE PUSH1 0x40 SWAP1 KECCAK256 SLOAD PUSH2 0x2258 SWAP1 DUP4 PUSH4 0xFFFFFFFF PUSH2 0x36EE AND JUMP JUMPDEST PUSH1 0x8 SLOAD PUSH1 0x1 PUSH1 0xA0 PUSH1 0x2 EXP SUB AND PUSH1 0x0 SWAP1 DUP2 MSTORE PUSH1 0x1 PUSH1 0x20 MSTORE PUSH1 0x40 SWAP1 KECCAK256 SSTORE PUSH1 0x2 SLOAD PUSH2 0x2286 SWAP1 DUP4 PUSH4 0xFFFFFFFF PUSH2 0x36EE AND JUMP JUMPDEST PUSH1 0x2 SSTORE PUSH1 0x8 SLOAD PUSH1 0x40 DUP1 MLOAD DUP5 DUP2 MSTORE SWAP1 MLOAD PUSH1 0x1 PUSH1 0xA0 PUSH1 0x2 EXP SUB SWAP1 SWAP3 AND SWAP2 PUSH32 0x1B7E18241BECED0D7F41FBAB1EA8ED468732EDBCB74EC4420151654CA71C8A63 SWAP2 DUP2 SWAP1 SUB PUSH1 0x20 ADD SWAP1 LOG2 PUSH1 0x8 SLOAD PUSH1 0x40 DUP1 MLOAD DUP5 DUP2 MSTORE SWAP1 MLOAD PUSH1 0x0 SWAP3 PUSH1 0x1 PUSH1 0xA0 PUSH1 0x2 EXP SUB AND SWAP2 PUSH1 0x0 DUP1 MLOAD PUSH1 0x20 PUSH2 0x38DD DUP4 CODECOPY DUP2 MLOAD SWAP2 MSTORE SWAP2 SWAP1 DUP2 SWAP1 SUB PUSH1 0x20 ADD SWAP1 LOG3 POP PUSH1 0x1 SWAP2 SWAP1 POP JUMP JUMPDEST PUSH1 0x1 PUSH1 0xA0 PUSH1 0x2 EXP SUB AND PUSH1 0x0 SWAP1 DUP2 MSTORE PUSH1 0xA PUSH1 0x20 MSTORE PUSH1 0x40 SWAP1 KECCAK256 SLOAD PUSH1 0xFF AND SWAP1 JUMP JUMPDEST PUSH1 0x5 SLOAD PUSH1 0x0 SWAP1 PUSH1 0xA0 PUSH1 0x2 EXP SWAP1 DIV PUSH1 0xFF AND ISZERO PUSH2 0x2376 JUMPI PUSH1 0x40 DUP1 MLOAD PUSH1 0xE5 PUSH1 0x2 EXP PUSH3 0x461BCD MUL DUP2 MSTORE PUSH1 0x20 PUSH1 0x4 DUP3 ADD MSTORE PUSH1 0xD PUSH1 0x24 DUP3 ADD MSTORE PUSH1 0x0 DUP1 MLOAD PUSH1 0x20 PUSH2 0x38BD DUP4 CODECOPY DUP2 MLOAD SWAP2 MSTORE PUSH1 0x44 DUP3 ADD MSTORE SWAP1 MLOAD SWAP1 DUP2 SWAP1 SUB PUSH1 0x64 ADD SWAP1 REVERT JUMPDEST PUSH1 0x1 PUSH1 0xA0 PUSH1 0x2 EXP SUB DUP4 AND ISZERO ISZERO PUSH2 0x23D6 JUMPI PUSH1 0x40 DUP1 MLOAD PUSH1 0xE5 PUSH1 0x2 EXP PUSH3 0x461BCD MUL DUP2 MSTORE PUSH1 0x20 PUSH1 0x4 DUP3 ADD MSTORE PUSH1 0x1F PUSH1 0x24 DUP3 ADD MSTORE PUSH32 0x63616E6E6F74207472616E7366657220746F2061646472657373207A65726F00 PUSH1 0x44 DUP3 ADD MSTORE SWAP1 MLOAD SWAP1 DUP2 SWAP1 SUB PUSH1 0x64 ADD SWAP1 REVERT JUMPDEST PUSH1 0x1 PUSH1 0xA0 PUSH1 0x2 EXP SUB DUP4 AND PUSH1 0x0 SWAP1 DUP2 MSTORE PUSH1 0x7 PUSH1 0x20 MSTORE PUSH1 0x40 SWAP1 KECCAK256 SLOAD PUSH1 0xFF AND ISZERO DUP1 ISZERO PUSH2 0x240F JUMPI POP CALLER PUSH1 0x0 SWAP1 DUP2 MSTORE PUSH1 0x7 PUSH1 0x20 MSTORE PUSH1 0x40 SWAP1 KECCAK256 SLOAD PUSH1 0xFF AND ISZERO JUMPDEST ISZERO ISZERO PUSH2 0x2453 JUMPI PUSH1 0x40 DUP1 MLOAD PUSH1 0xE5 PUSH1 0x2 EXP PUSH3 0x461BCD MUL DUP2 MSTORE PUSH1 0x20 PUSH1 0x4 DUP3 ADD MSTORE PUSH1 0xE PUSH1 0x24 DUP3 ADD MSTORE PUSH1 0x0 DUP1 MLOAD PUSH1 0x20 PUSH2 0x389D DUP4 CODECOPY DUP2 MLOAD SWAP2 MSTORE PUSH1 0x44 DUP3 ADD MSTORE SWAP1 MLOAD SWAP1 DUP2 SWAP1 SUB PUSH1 0x64 ADD SWAP1 REVERT JUMPDEST CALLER PUSH1 0x0 SWAP1 DUP2 MSTORE PUSH1 0x1 PUSH1 0x20 MSTORE PUSH1 0x40 SWAP1 KECCAK256 SLOAD DUP3 GT ISZERO PUSH2 0x24BA JUMPI PUSH1 0x40 DUP1 MLOAD PUSH1 0xE5 PUSH1 0x2 EXP PUSH3 0x461BCD MUL DUP2 MSTORE PUSH1 0x20 PUSH1 0x4 DUP3 ADD MSTORE PUSH1 0x12 PUSH1 0x24 DUP3 ADD MSTORE PUSH32 0x696E73756666696369656E742066756E64730000000000000000000000000000 PUSH1 0x44 DUP3 ADD MSTORE SWAP1 MLOAD SWAP1 DUP2 SWAP1 SUB PUSH1 0x64 ADD SWAP1 REVERT JUMPDEST PUSH2 0x24C5 CALLER DUP5 DUP5 PUSH2 0x3705 JUMP JUMPDEST POP PUSH1 0x1 SWAP4 SWAP3 POP POP POP JUMP JUMPDEST PUSH1 0x9 SLOAD PUSH1 0x1 PUSH1 0xA0 PUSH1 0x2 EXP SUB AND CALLER EQ PUSH2 0x2531 JUMPI PUSH1 0x40 DUP1 MLOAD PUSH1 0xE5 PUSH1 0x2 EXP PUSH3 0x461BCD MUL DUP2 MSTORE PUSH1 0x20 PUSH1 0x4 DUP3 ADD MSTORE PUSH1 0x1B PUSH1 0x24 DUP3 ADD MSTORE PUSH32 0x6F6E6C794265746144656C656761746557686974656C69737465720000000000 PUSH1 0x44 DUP3 ADD MSTORE SWAP1 MLOAD SWAP1 DUP2 SWAP1 SUB PUSH1 0x64 ADD SWAP1 REVERT JUMPDEST PUSH1 0x1 PUSH1 0xA0 PUSH1 0x2 EXP SUB DUP2 AND PUSH1 0x0 SWAP1 DUP2 MSTORE PUSH1 0xA PUSH1 0x20 MSTORE PUSH1 0x40 SWAP1 KECCAK256 SLOAD PUSH1 0xFF AND ISZERO PUSH2 0x25A2 JUMPI PUSH1 0x40 DUP1 MLOAD PUSH1 0xE5 PUSH1 0x2 EXP PUSH3 0x461BCD MUL DUP2 MSTORE PUSH1 0x20 PUSH1 0x4 DUP3 ADD MSTORE PUSH1 0x1C PUSH1 0x24 DUP3 ADD MSTORE PUSH32 0x64656C656761746520616C72656164792077686974656C697374656400000000 PUSH1 0x44 DUP3 ADD MSTORE SWAP1 MLOAD SWAP1 DUP2 SWAP1 SUB PUSH1 0x64 ADD SWAP1 REVERT JUMPDEST PUSH1 0x1 PUSH1 0xA0 PUSH1 0x2 EXP SUB DUP2 AND PUSH1 0x0 DUP2 DUP2 MSTORE PUSH1 0xA PUSH1 0x20 MSTORE PUSH1 0x40 DUP1 DUP3 KECCAK256 DUP1 SLOAD PUSH1 0xFF NOT AND PUSH1 0x1 OR SWAP1 SSTORE MLOAD PUSH32 0x8A22E0D8ECB02260464E9A55B7D82B17482735AE1F765DE59DEE573DFEC5B36D SWAP2 SWAP1 LOG2 POP JUMP JUMPDEST PUSH1 0x4 SLOAD PUSH1 0x1 PUSH1 0xA0 PUSH1 0x2 EXP SUB AND CALLER EQ PUSH2 0x263E JUMPI PUSH1 0x40 DUP1 MLOAD PUSH1 0xE5 PUSH1 0x2 EXP PUSH3 0x461BCD MUL DUP2 MSTORE PUSH1 0x20 PUSH1 0x4 DUP3 ADD MSTORE PUSH1 0x9 PUSH1 0x24 DUP3 ADD MSTORE PUSH1 0x0 DUP1 MLOAD PUSH1 0x20 PUSH2 0x38FD DUP4 CODECOPY DUP2 MLOAD SWAP2 MSTORE PUSH1 0x44 DUP3 ADD MSTORE SWAP1 MLOAD SWAP1 DUP2 SWAP1 SUB PUSH1 0x64 ADD SWAP1 REVERT JUMPDEST PUSH1 0x1 PUSH1 0xA0 PUSH1 0x2 EXP SUB DUP2 AND ISZERO ISZERO PUSH2 0x26C4 JUMPI PUSH1 0x40 DUP1 MLOAD PUSH1 0xE5 PUSH1 0x2 EXP PUSH3 0x461BCD MUL DUP2 MSTORE PUSH1 0x20 PUSH1 0x4 DUP3 ADD MSTORE PUSH1 0x29 PUSH1 0x24 DUP3 ADD MSTORE PUSH32 0x63616E6E6F74207472616E73666572206F776E65727368697020746F20616464 PUSH1 0x44 DUP3 ADD MSTORE PUSH32 0x72657373207A65726F0000000000000000000000000000000000000000000000 PUSH1 0x64 DUP3 ADD MSTORE SWAP1 MLOAD SWAP1 DUP2 SWAP1 SUB PUSH1 0x84 ADD SWAP1 REVERT JUMPDEST CALLER PUSH1 0x1 PUSH1 0xA0 PUSH1 0x2 EXP SUB DUP3 AND EQ ISZERO PUSH2 0x2725 JUMPI PUSH1 0x40 DUP1 MLOAD PUSH1 0xE5 PUSH1 0x2 EXP PUSH3 0x461BCD MUL DUP2 MSTORE PUSH1 0x20 PUSH1 0x4 DUP3 ADD MSTORE PUSH1 0x17 PUSH1 0x24 DUP3 ADD MSTORE PUSH32 0x63616C6C657220616C7265616479206973206F776E6572000000000000000000 PUSH1 0x44 DUP3 ADD MSTORE SWAP1 MLOAD SWAP1 DUP2 SWAP1 SUB PUSH1 0x64 ADD SWAP1 REVERT JUMPDEST PUSH1 0x5 DUP1 SLOAD PUSH1 0x1 PUSH1 0xA0 PUSH1 0x2 EXP SUB NOT AND PUSH1 0x1 PUSH1 0xA0 PUSH1 0x2 EXP SUB DUP4 DUP2 AND SWAP2 SWAP1 SWAP2 OR SWAP2 DUP3 SWAP1 SSTORE PUSH1 0x4 SLOAD PUSH1 0x40 MLOAD SWAP3 DUP3 AND SWAP3 SWAP2 AND SWAP1 PUSH32 0xF4E75B79500AB730F8A026ED3CBA6D55331BCB64C9E9F60C548E371356E5E3C0 SWAP1 PUSH1 0x0 SWAP1 LOG3 POP JUMP JUMPDEST PUSH1 0x8 SLOAD PUSH1 0x0 SWAP1 PUSH1 0x1 PUSH1 0xA0 PUSH1 0x2 EXP SUB AND CALLER EQ PUSH2 0x27E1 JUMPI PUSH1 0x40 DUP1 MLOAD PUSH1 0xE5 PUSH1 0x2 EXP PUSH3 0x461BCD MUL DUP2 MSTORE PUSH1 0x20 PUSH1 0x4 DUP3 ADD MSTORE PUSH1 0x14 PUSH1 0x24 DUP3 ADD MSTORE PUSH32 0x6F6E6C79537570706C79436F6E74726F6C6C6572000000000000000000000000 PUSH1 0x44 DUP3 ADD MSTORE SWAP1 MLOAD SWAP1 DUP2 SWAP1 SUB PUSH1 0x64 ADD SWAP1 REVERT JUMPDEST PUSH1 0x2 SLOAD PUSH2 0x27F4 SWAP1 DUP4 PUSH4 0xFFFFFFFF PUSH2 0x2D46 AND JUMP JUMPDEST PUSH1 0x2 SSTORE PUSH1 0x8 SLOAD PUSH1 0x1 PUSH1 0xA0 PUSH1 0x2 EXP SUB AND PUSH1 0x0 SWAP1 DUP2 MSTORE PUSH1 0x1 PUSH1 0x20 MSTORE PUSH1 0x40 SWAP1 KECCAK256 SLOAD PUSH2 0x2822 SWAP1 DUP4 PUSH4 0xFFFFFFFF PUSH2 0x2D46 AND JUMP JUMPDEST PUSH1 0x8 DUP1 SLOAD PUSH1 0x1 PUSH1 0xA0 PUSH1 0x2 EXP SUB SWAP1 DUP2 AND PUSH1 0x0 SWAP1 DUP2 MSTORE PUSH1 0x1 PUSH1 0x20 SWAP1 DUP2 MSTORE PUSH1 0x40 SWAP2 DUP3 SWAP1 KECCAK256 SWAP5 SWAP1 SWAP5 SSTORE SWAP2 SLOAD DUP3 MLOAD DUP7 DUP2 MSTORE SWAP3 MLOAD SWAP2 AND SWAP3 PUSH32 0xF5C174D57843E57FEA3C649FDDE37F015EF08750759CBEE88060390566A98797 SWAP3 DUP3 SWAP1 SUB ADD SWAP1 LOG2 PUSH1 0x8 SLOAD PUSH1 0x40 DUP1 MLOAD DUP5 DUP2 MSTORE SWAP1 MLOAD PUSH1 0x1 PUSH1 0xA0 PUSH1 0x2 EXP SUB SWAP1 SWAP3 AND SWAP2 PUSH1 0x0 SWAP2 PUSH1 0x0 DUP1 MLOAD PUSH1 0x20 PUSH2 0x38DD DUP4 CODECOPY DUP2 MLOAD SWAP2 MSTORE SWAP2 SWAP1 DUP2 SWAP1 SUB PUSH1 0x20 ADD SWAP1 LOG3 POP PUSH1 0x1 SWAP2 SWAP1 POP JUMP JUMPDEST PUSH1 0x9 SLOAD PUSH1 0x1 PUSH1 0xA0 PUSH1 0x2 EXP SUB AND DUP2 JUMP JUMPDEST PUSH1 0x6 DUP2 JUMP JUMPDEST PUSH1 0x5 SLOAD PUSH1 0x1 PUSH1 0xA0 PUSH1 0x2 EXP SUB AND DUP2 JUMP JUMPDEST PUSH1 0x9 SLOAD PUSH1 0x1 PUSH1 0xA0 PUSH1 0x2 EXP SUB AND CALLER EQ PUSH2 0x293C JUMPI PUSH1 0x40 DUP1 MLOAD PUSH1 0xE5 PUSH1 0x2 EXP PUSH3 0x461BCD MUL DUP2 MSTORE PUSH1 0x20 PUSH1 0x4 DUP3 ADD MSTORE PUSH1 0x1B PUSH1 0x24 DUP3 ADD MSTORE PUSH32 0x6F6E6C794265746144656C656761746557686974656C69737465720000000000 PUSH1 0x44 DUP3 ADD MSTORE SWAP1 MLOAD SWAP1 DUP2 SWAP1 SUB PUSH1 0x64 ADD SWAP1 REVERT JUMPDEST PUSH1 0x1 PUSH1 0xA0 PUSH1 0x2 EXP SUB DUP2 AND PUSH1 0x0 SWAP1 DUP2 MSTORE PUSH1 0xA PUSH1 0x20 MSTORE PUSH1 0x40 SWAP1 KECCAK256 SLOAD PUSH1 0xFF AND ISZERO ISZERO PUSH2 0x29AE JUMPI PUSH1 0x40 DUP1 MLOAD PUSH1 0xE5 PUSH1 0x2 EXP PUSH3 0x461BCD MUL DUP2 MSTORE PUSH1 0x20 PUSH1 0x4 DUP3 ADD MSTORE PUSH1 0x18 PUSH1 0x24 DUP3 ADD MSTORE PUSH32 0x64656C6567617465206E6F742077686974656C69737465640000000000000000 PUSH1 0x44 DUP3 ADD MSTORE SWAP1 MLOAD SWAP1 DUP2 SWAP1 SUB PUSH1 0x64 ADD SWAP1 REVERT JUMPDEST PUSH1 0x1 PUSH1 0xA0 PUSH1 0x2 EXP SUB DUP2 AND PUSH1 0x0 DUP2 DUP2 MSTORE PUSH1 0xA PUSH1 0x20 MSTORE PUSH1 0x40 DUP1 DUP3 KECCAK256 DUP1 SLOAD PUSH1 0xFF NOT AND SWAP1 SSTORE MLOAD PUSH32 0x12ACB305BEC2ECC1E4568DECC9C8E0423749CEB6AE249EAEF4EF375EC174A49C SWAP2 SWAP1 LOG2 POP JUMP JUMPDEST PUSH1 0x1 PUSH1 0xA0 PUSH1 0x2 EXP SUB SWAP2 DUP3 AND PUSH1 0x0 SWAP1 DUP2 MSTORE PUSH1 0x3 PUSH1 0x20 SWAP1 DUP2 MSTORE PUSH1 0x40 DUP1 DUP4 KECCAK256 SWAP4 SWAP1 SWAP5 AND DUP3 MSTORE SWAP2 SWAP1 SWAP2 MSTORE KECCAK256 SLOAD SWAP1 JUMP JUMPDEST PUSH1 0x6 SLOAD PUSH1 0x0 SWAP1 PUSH1 0x1 PUSH1 0xA0 PUSH1 0x2 EXP SUB AND CALLER EQ PUSH2 0x2A87 JUMPI PUSH1 0x40 DUP1 MLOAD PUSH1 0xE5 PUSH1 0x2 EXP PUSH3 0x461BCD MUL DUP2 MSTORE PUSH1 0x20 PUSH1 0x4 DUP3 ADD MSTORE PUSH1 0x17 PUSH1 0x24 DUP3 ADD MSTORE PUSH32 0x6F6E6C79417373657450726F74656374696F6E526F6C65000000000000000000 PUSH1 0x44 DUP3 ADD MSTORE SWAP1 MLOAD SWAP1 DUP2 SWAP1 SUB PUSH1 0x64 ADD SWAP1 REVERT JUMPDEST PUSH1 0x1 PUSH1 0xA0 PUSH1 0x2 EXP SUB DUP3 AND PUSH1 0x0 SWAP1 DUP2 MSTORE PUSH1 0x7 PUSH1 0x20 MSTORE PUSH1 0x40 SWAP1 KECCAK256 SLOAD PUSH1 0xFF AND ISZERO ISZERO PUSH2 0x2AF9 JUMPI PUSH1 0x40 DUP1 MLOAD PUSH1 0xE5 PUSH1 0x2 EXP PUSH3 0x461BCD MUL DUP2 MSTORE PUSH1 0x20 PUSH1 0x4 DUP3 ADD MSTORE PUSH1 0x15 PUSH1 0x24 DUP3 ADD MSTORE PUSH32 0x61646472657373206973206E6F742066726F7A656E0000000000000000000000 PUSH1 0x44 DUP3 ADD MSTORE SWAP1 MLOAD SWAP1 DUP2 SWAP1 SUB PUSH1 0x64 ADD SWAP1 REVERT JUMPDEST POP PUSH1 0x1 PUSH1 0xA0 PUSH1 0x2 EXP SUB DUP2 AND PUSH1 0x0 SWAP1 DUP2 MSTORE PUSH1 0x1 PUSH1 0x20 MSTORE PUSH1 0x40 DUP2 KECCAK256 DUP1 SLOAD SWAP2 SWAP1 SSTORE PUSH1 0x2 SLOAD PUSH2 0x2B2A SWAP1 DUP3 PUSH4 0xFFFFFFFF PUSH2 0x36EE AND JUMP JUMPDEST PUSH1 0x2 SSTORE PUSH1 0x40 MLOAD PUSH1 0x1 PUSH1 0xA0 PUSH1 0x2 EXP SUB DUP4 AND SWAP1 PUSH32 0xFC5960F1C5A5D2B60F031BF534AF053B1BF7D9881989AFAEB8B1D164DB23AEDE SWAP1 PUSH1 0x0 SWAP1 LOG2 PUSH1 0x40 DUP1 MLOAD DUP3 DUP2 MSTORE SWAP1 MLOAD PUSH1 0x1 PUSH1 0xA0 PUSH1 0x2 EXP SUB DUP5 AND SWAP2 PUSH32 0x1B7E18241BECED0D7F41FBAB1EA8ED468732EDBCB74EC4420151654CA71C8A63 SWAP2 SWAP1 DUP2 SWAP1 SUB PUSH1 0x20 ADD SWAP1 LOG2 PUSH1 0x40 DUP1 MLOAD DUP3 DUP2 MSTORE SWAP1 MLOAD PUSH1 0x0 SWAP2 PUSH1 0x1 PUSH1 0xA0 PUSH1 0x2 EXP SUB DUP6 AND SWAP2 PUSH1 0x0 DUP1 MLOAD PUSH1 0x20 PUSH2 0x38DD DUP4 CODECOPY DUP2 MLOAD SWAP2 MSTORE SWAP2 DUP2 SWAP1 SUB PUSH1 0x20 ADD SWAP1 LOG3 POP POP JUMP JUMPDEST PUSH1 0xC SLOAD DUP2 JUMP JUMPDEST PUSH1 0x1 PUSH1 0xA0 PUSH1 0x2 EXP SUB AND PUSH1 0x0 SWAP1 DUP2 MSTORE PUSH1 0x7 PUSH1 0x20 MSTORE PUSH1 0x40 SWAP1 KECCAK256 SLOAD PUSH1 0xFF AND SWAP1 JUMP JUMPDEST PUSH1 0xE SLOAD PUSH1 0x0 SWAP1 PUSH1 0x1 PUSH1 0xA0 PUSH1 0x2 EXP SUB AND CALLER EQ PUSH2 0x2C5C JUMPI PUSH1 0x40 DUP1 MLOAD PUSH1 0xE5 PUSH1 0x2 EXP PUSH3 0x461BCD MUL DUP2 MSTORE PUSH1 0x20 PUSH1 0x4 DUP3 ADD MSTORE PUSH1 0x12 PUSH1 0x24 DUP3 ADD MSTORE PUSH32 0x6F6E6C7920466565436F6E74726F6C6C65720000000000000000000000000000 PUSH1 0x44 DUP3 ADD MSTORE SWAP1 MLOAD SWAP1 DUP2 SWAP1 SUB PUSH1 0x64 ADD SWAP1 REVERT JUMPDEST PUSH1 0x1 PUSH1 0xA0 PUSH1 0x2 EXP SUB DUP3 AND ISZERO ISZERO PUSH2 0x2CE2 JUMPI PUSH1 0x40 DUP1 MLOAD PUSH1 0xE5 PUSH1 0x2 EXP PUSH3 0x461BCD MUL DUP2 MSTORE PUSH1 0x20 PUSH1 0x4 DUP3 ADD MSTORE PUSH1 0x28 PUSH1 0x24 DUP3 ADD MSTORE PUSH32 0x63616E6E6F74207365742066656520726563697069656E7420746F2061646472 PUSH1 0x44 DUP3 ADD MSTORE PUSH32 0x657373207A65726F000000000000000000000000000000000000000000000000 PUSH1 0x64 DUP3 ADD MSTORE SWAP1 MLOAD SWAP1 DUP2 SWAP1 SUB PUSH1 0x84 ADD SWAP1 REVERT JUMPDEST POP PUSH1 0xF DUP1 SLOAD PUSH1 0x1 PUSH1 0xA0 PUSH1 0x2 EXP SUB DUP4 DUP2 AND PUSH1 0x1 PUSH1 0xA0 PUSH1 0x2 EXP SUB NOT DUP4 AND OR SWAP3 DUP4 SWAP1 SSTORE PUSH1 0x40 MLOAD SWAP2 DUP2 AND SWAP3 AND SWAP1 DUP3 SWAP1 PUSH32 0x15D80A013F22151BC7246E3BC132E12828CDE19DE98870475E3FA70840152721 SWAP1 PUSH1 0x0 SWAP1 LOG3 POP POP JUMP JUMPDEST PUSH1 0x8 SLOAD PUSH1 0x1 PUSH1 0xA0 PUSH1 0x2 EXP SUB AND DUP2 JUMP JUMPDEST PUSH1 0x0 DUP3 DUP3 ADD DUP4 DUP2 LT ISZERO PUSH2 0x2D58 JUMPI PUSH1 0x0 DUP1 REVERT JUMPDEST DUP1 SWAP2 POP JUMPDEST POP SWAP3 SWAP2 POP POP JUMP JUMPDEST PUSH1 0x0 DUP1 DUP4 ISZERO ISZERO PUSH2 0x2D76 JUMPI PUSH1 0x0 SWAP2 POP PUSH2 0x2D5C JUMP JUMPDEST POP DUP3 DUP3 MUL DUP3 DUP5 DUP3 DUP2 ISZERO ISZERO PUSH2 0x2D86 JUMPI INVALID JUMPDEST DIV EQ PUSH2 0x2D58 JUMPI PUSH1 0x0 DUP1 REVERT JUMPDEST PUSH1 0x0 DUP1 DUP1 DUP4 GT PUSH2 0x2DA0 JUMPI PUSH1 0x0 DUP1 REVERT JUMPDEST DUP3 DUP5 DUP2 ISZERO ISZERO PUSH2 0x2DAB JUMPI INVALID JUMPDEST DIV SWAP5 SWAP4 POP POP POP POP JUMP JUMPDEST PUSH1 0x5 SLOAD PUSH1 0x0 SWAP1 DUP2 SWAP1 DUP2 SWAP1 DUP2 SWAP1 PUSH1 0xA0 PUSH1 0x2 EXP SWAP1 DIV PUSH1 0xFF AND ISZERO PUSH2 0x2E0D JUMPI PUSH1 0x40 DUP1 MLOAD PUSH1 0xE5 PUSH1 0x2 EXP PUSH3 0x461BCD MUL DUP2 MSTORE PUSH1 0x20 PUSH1 0x4 DUP3 ADD MSTORE PUSH1 0xD PUSH1 0x24 DUP3 ADD MSTORE PUSH1 0x0 DUP1 MLOAD PUSH1 0x20 PUSH2 0x38BD DUP4 CODECOPY DUP2 MLOAD SWAP2 MSTORE PUSH1 0x44 DUP3 ADD MSTORE SWAP1 MLOAD SWAP1 DUP2 SWAP1 SUB PUSH1 0x64 ADD SWAP1 REVERT JUMPDEST CALLER PUSH1 0x0 SWAP1 DUP2 MSTORE PUSH1 0xA PUSH1 0x20 MSTORE PUSH1 0x40 SWAP1 KECCAK256 SLOAD PUSH1 0xFF AND ISZERO ISZERO PUSH2 0x2E9C JUMPI PUSH1 0x40 DUP1 MLOAD PUSH1 0xE5 PUSH1 0x2 EXP PUSH3 0x461BCD MUL DUP2 MSTORE PUSH1 0x20 PUSH1 0x4 DUP3 ADD MSTORE PUSH1 0x2F PUSH1 0x24 DUP3 ADD MSTORE PUSH32 0x426574612066656174757265206F6E6C7920616363657074732077686974656C PUSH1 0x44 DUP3 ADD MSTORE PUSH32 0x69737465642064656C6567617465730000000000000000000000000000000000 PUSH1 0x64 DUP3 ADD MSTORE SWAP1 MLOAD SWAP1 DUP2 SWAP1 SUB PUSH1 0x84 ADD SWAP1 REVERT JUMPDEST PUSH1 0x0 DUP9 GT DUP1 PUSH2 0x2EAB JUMPI POP PUSH1 0x0 DUP8 GT JUMPDEST ISZERO ISZERO PUSH2 0x2F27 JUMPI PUSH1 0x40 DUP1 MLOAD PUSH1 0xE5 PUSH1 0x2 EXP PUSH3 0x461BCD MUL DUP2 MSTORE PUSH1 0x20 PUSH1 0x4 DUP3 ADD MSTORE PUSH1 0x31 PUSH1 0x24 DUP3 ADD MSTORE PUSH32 0x63616E6E6F74207472616E73666572207A65726F20746F6B656E732077697468 PUSH1 0x44 DUP3 ADD MSTORE PUSH32 0x207A65726F207365727669636520666565000000000000000000000000000000 PUSH1 0x64 DUP3 ADD MSTORE SWAP1 MLOAD SWAP1 DUP2 SWAP1 SUB PUSH1 0x84 ADD SWAP1 REVERT JUMPDEST NUMBER DUP6 LT ISZERO PUSH2 0x2F7F JUMPI PUSH1 0x40 DUP1 MLOAD PUSH1 0xE5 PUSH1 0x2 EXP PUSH3 0x461BCD MUL DUP2 MSTORE PUSH1 0x20 PUSH1 0x4 DUP3 ADD MSTORE PUSH1 0x13 PUSH1 0x24 DUP3 ADD MSTORE PUSH32 0x7472616E73616374696F6E206578706972656400000000000000000000000000 PUSH1 0x44 DUP3 ADD MSTORE SWAP1 MLOAD SWAP1 DUP2 SWAP1 SUB PUSH1 0x64 ADD SWAP1 REVERT JUMPDEST PUSH32 0x7FFFFFFFFFFFFFFFFFFFFFFFFFFFFFFF5D576E7357A4501DDFE92F46681B20A0 DUP12 GT ISZERO PUSH2 0x2FF7 JUMPI PUSH1 0x40 DUP1 MLOAD PUSH1 0xE5 PUSH1 0x2 EXP PUSH3 0x461BCD MUL DUP2 MSTORE PUSH1 0x20 PUSH1 0x4 DUP3 ADD MSTORE PUSH1 0x13 PUSH1 0x24 DUP3 ADD MSTORE PUSH32 0x7369676E617475726520696E636F727265637400000000000000000000000000 PUSH1 0x44 DUP3 ADD MSTORE SWAP1 MLOAD SWAP1 DUP2 SWAP1 SUB PUSH1 0x64 ADD SWAP1 REVERT JUMPDEST DUP10 PUSH1 0xFF AND PUSH1 0x1B EQ DUP1 PUSH2 0x300C JUMPI POP DUP10 PUSH1 0xFF AND PUSH1 0x1C EQ JUMPDEST ISZERO ISZERO PUSH2 0x3062 JUMPI PUSH1 0x40 DUP1 MLOAD PUSH1 0xE5 PUSH1 0x2 EXP PUSH3 0x461BCD MUL DUP2 MSTORE PUSH1 0x20 PUSH1 0x4 DUP3 ADD MSTORE PUSH1 0x13 PUSH1 0x24 DUP3 ADD MSTORE PUSH32 0x7369676E617475726520696E636F727265637400000000000000000000000000 PUSH1 0x44 DUP3 ADD MSTORE SWAP1 MLOAD SWAP1 DUP2 SWAP1 SUB PUSH1 0x64 ADD SWAP1 REVERT JUMPDEST PUSH1 0x40 DUP1 MLOAD DUP1 DUP3 ADD DUP3 MSTORE PUSH1 0x2 DUP2 MSTORE PUSH32 0x1901000000000000000000000000000000000000000000000000000000000000 PUSH1 0x20 DUP1 DUP4 ADD SWAP2 SWAP1 SWAP2 MSTORE PUSH1 0xC SLOAD DUP4 MLOAD PUSH32 0x4265746144656C6567617465645472616E73666572286164647265737320746F DUP2 MSTORE PUSH32 0x2C75696E743235362076616C75652C75696E7432353620736572766963654665 DUP2 DUP5 ADD MSTORE PUSH32 0x652C75696E74323536207365712C75696E7432353620646561646C696E652900 DUP2 DUP7 ADD MSTORE DUP5 MLOAD SWAP1 DUP2 SWAP1 SUB PUSH1 0x5F ADD DUP2 KECCAK256 DUP2 DUP5 ADD MSTORE PUSH1 0x1 PUSH1 0xA0 PUSH1 0x2 EXP SUB DUP15 AND DUP2 DUP7 ADD MSTORE PUSH1 0x60 DUP2 ADD DUP14 SWAP1 MSTORE PUSH1 0x80 DUP2 ADD DUP13 SWAP1 MSTORE PUSH1 0xA0 DUP2 ADD DUP12 SWAP1 MSTORE PUSH1 0xC0 DUP1 DUP3 ADD DUP12 SWAP1 MSTORE DUP6 MLOAD DUP1 DUP4 SUB SWAP1 SWAP2 ADD DUP2 MSTORE PUSH1 0xE0 SWAP1 SWAP2 ADD SWAP5 DUP6 SWAP1 MSTORE DUP1 MLOAD SWAP4 SWAP5 SWAP2 SWAP4 SWAP1 SWAP3 DUP3 SWAP2 SWAP1 DUP5 ADD SWAP1 DUP1 DUP4 DUP4 JUMPDEST PUSH1 0x20 DUP4 LT PUSH2 0x3189 JUMPI DUP1 MLOAD DUP3 MSTORE PUSH1 0x1F NOT SWAP1 SWAP3 ADD SWAP2 PUSH1 0x20 SWAP2 DUP3 ADD SWAP2 ADD PUSH2 0x316A JUMP JUMPDEST MLOAD DUP2 MLOAD PUSH1 0x20 SWAP4 DUP5 SUB PUSH2 0x100 EXP PUSH1 0x0 NOT ADD DUP1 NOT SWAP1 SWAP3 AND SWAP2 AND OR SWAP1 MSTORE PUSH1 0x40 MLOAD SWAP2 SWAP1 SWAP4 ADD DUP2 SWAP1 SUB DUP2 KECCAK256 DUP8 MLOAD SWAP1 SWAP6 POP SWAP1 DUP4 ADD SWAP4 POP DUP4 SWAP3 DUP8 ADD SWAP2 POP DUP1 DUP4 DUP4 JUMPDEST PUSH1 0x20 DUP4 LT PUSH2 0x31E2 JUMPI DUP1 MLOAD DUP3 MSTORE PUSH1 0x1F NOT SWAP1 SWAP3 ADD SWAP2 PUSH1 0x20 SWAP2 DUP3 ADD SWAP2 ADD PUSH2 0x31C3 JUMP JUMPDEST MLOAD DUP2 MLOAD PUSH1 0x20 SWAP4 DUP5 SUB PUSH2 0x100 EXP PUSH1 0x0 NOT ADD DUP1 NOT SWAP1 SWAP3 AND SWAP2 AND OR SWAP1 MSTORE SWAP3 ADD SWAP5 DUP6 MSTORE POP DUP4 DUP2 ADD SWAP3 SWAP1 SWAP3 MSTORE POP PUSH1 0x40 DUP1 MLOAD DUP1 DUP5 SUB DUP4 ADD DUP2 MSTORE SWAP3 DUP2 ADD SWAP1 DUP2 SWAP1 MSTORE DUP3 MLOAD SWAP3 SWAP4 POP SWAP2 DUP3 SWAP2 DUP5 ADD SWAP1 DUP1 DUP4 DUP4 JUMPDEST PUSH1 0x20 DUP4 LT PUSH2 0x324A JUMPI DUP1 MLOAD DUP3 MSTORE PUSH1 0x1F NOT SWAP1 SWAP3 ADD SWAP2 PUSH1 0x20 SWAP2 DUP3 ADD SWAP2 ADD PUSH2 0x322B JUMP JUMPDEST PUSH1 0x1 DUP4 PUSH1 0x20 SUB PUSH2 0x100 EXP SUB DUP1 NOT DUP3 MLOAD AND DUP2 DUP5 MLOAD AND DUP1 DUP3 OR DUP6 MSTORE POP POP POP POP POP POP SWAP1 POP ADD SWAP2 POP POP PUSH1 0x40 MLOAD DUP1 SWAP2 SUB SWAP1 KECCAK256 SWAP3 POP PUSH1 0x1 DUP4 DUP12 DUP15 DUP15 PUSH1 0x40 MLOAD PUSH1 0x0 DUP2 MSTORE PUSH1 0x20 ADD PUSH1 0x40 MSTORE PUSH1 0x40 MLOAD DUP1 DUP6 PUSH1 0x0 NOT AND PUSH1 0x0 NOT AND DUP2 MSTORE PUSH1 0x20 ADD DUP5 PUSH1 0xFF AND PUSH1 0xFF AND DUP2 MSTORE PUSH1 0x20 ADD DUP4 PUSH1 0x0 NOT AND PUSH1 0x0 NOT AND DUP2 MSTORE PUSH1 0x20 ADD DUP3 PUSH1 0x0 NOT AND PUSH1 0x0 NOT AND DUP2 MSTORE PUSH1 0x20 ADD SWAP5 POP POP POP POP POP PUSH1 0x20 PUSH1 0x40 MLOAD PUSH1 0x20 DUP2 SUB SWAP1 DUP1 DUP5 SUB SWAP1 DUP6 GAS STATICCALL ISZERO DUP1 ISZERO PUSH2 0x32EE JUMPI RETURNDATASIZE PUSH1 0x0 DUP1 RETURNDATACOPY RETURNDATASIZE PUSH1 0x0 REVERT JUMPDEST POP POP PUSH1 0x40 MLOAD PUSH1 0x1F NOT ADD MLOAD SWAP3 POP POP PUSH1 0x1 PUSH1 0xA0 PUSH1 0x2 EXP SUB DUP3 AND ISZERO ISZERO PUSH2 0x3381 JUMPI PUSH1 0x40 DUP1 MLOAD PUSH1 0xE5 PUSH1 0x2 EXP PUSH3 0x461BCD MUL DUP2 MSTORE PUSH1 0x20 PUSH1 0x4 DUP3 ADD MSTORE PUSH1 0x2D PUSH1 0x24 DUP3 ADD MSTORE PUSH32 0x6572726F722064657465726D696E696E672066726F6D20616464726573732066 PUSH1 0x44 DUP3 ADD MSTORE PUSH32 0x726F6D207369676E617475726500000000000000000000000000000000000000 PUSH1 0x64 DUP3 ADD MSTORE SWAP1 MLOAD SWAP1 DUP2 SWAP1 SUB PUSH1 0x84 ADD SWAP1 REVERT JUMPDEST PUSH1 0x1 PUSH1 0xA0 PUSH1 0x2 EXP SUB DUP10 AND ISZERO ISZERO PUSH2 0x33E1 JUMPI PUSH1 0x40 DUP1 MLOAD PUSH1 0xE5 PUSH1 0x2 EXP PUSH3 0x461BCD MUL DUP2 MSTORE PUSH1 0x20 PUSH1 0x4 DUP3 ADD MSTORE PUSH1 0x17 PUSH1 0x24 DUP3 ADD MSTORE PUSH32 0x63616E6E6F74207573652061646472657373207A65726F000000000000000000 PUSH1 0x44 DUP3 ADD MSTORE SWAP1 MLOAD SWAP1 DUP2 SWAP1 SUB PUSH1 0x64 ADD SWAP1 REVERT JUMPDEST PUSH1 0x1 PUSH1 0xA0 PUSH1 0x2 EXP SUB DUP10 AND PUSH1 0x0 SWAP1 DUP2 MSTORE PUSH1 0x7 PUSH1 0x20 MSTORE PUSH1 0x40 SWAP1 KECCAK256 SLOAD PUSH1 0xFF AND ISZERO DUP1 ISZERO PUSH2 0x3423 JUMPI POP PUSH1 0x1 PUSH1 0xA0 PUSH1 0x2 EXP SUB DUP3 AND PUSH1 0x0 SWAP1 DUP2 MSTORE PUSH1 0x7 PUSH1 0x20 MSTORE PUSH1 0x40 SWAP1 KECCAK256 SLOAD PUSH1 0xFF AND ISZERO JUMPDEST DUP1 ISZERO PUSH2 0x343F JUMPI POP CALLER PUSH1 0x0 SWAP1 DUP2 MSTORE PUSH1 0x7 PUSH1 0x20 MSTORE PUSH1 0x40 SWAP1 KECCAK256 SLOAD PUSH1 0xFF AND ISZERO JUMPDEST ISZERO ISZERO PUSH2 0x3483 JUMPI PUSH1 0x40 DUP1 MLOAD PUSH1 0xE5 PUSH1 0x2 EXP PUSH3 0x461BCD MUL DUP2 MSTORE PUSH1 0x20 PUSH1 0x4 DUP3 ADD MSTORE PUSH1 0xE PUSH1 0x24 DUP3 ADD MSTORE PUSH1 0x0 DUP1 MLOAD PUSH1 0x20 PUSH2 0x389D DUP4 CODECOPY DUP2 MLOAD SWAP2 MSTORE PUSH1 0x44 DUP3 ADD MSTORE SWAP1 MLOAD SWAP1 DUP2 SWAP1 SUB PUSH1 0x64 ADD SWAP1 REVERT JUMPDEST PUSH1 0x1 PUSH1 0xA0 PUSH1 0x2 EXP SUB DUP3 AND PUSH1 0x0 SWAP1 DUP2 MSTORE PUSH1 0x1 PUSH1 0x20 MSTORE PUSH1 0x40 SWAP1 KECCAK256 SLOAD PUSH2 0x34AC DUP10 DUP10 PUSH4 0xFFFFFFFF PUSH2 0x2D46 AND JUMP JUMPDEST GT ISZERO PUSH2 0x3528 JUMPI PUSH1 0x40 DUP1 MLOAD PUSH1 0xE5 PUSH1 0x2 EXP PUSH3 0x461BCD MUL DUP2 MSTORE PUSH1 0x20 PUSH1 0x4 DUP3 ADD MSTORE PUSH1 0x23 PUSH1 0x24 DUP3 ADD MSTORE PUSH32 0x696E73756666696369656E742066756E6473206F7220626164207369676E6174 PUSH1 0x44 DUP3 ADD MSTORE PUSH32 0x7572650000000000000000000000000000000000000000000000000000000000 PUSH1 0x64 DUP3 ADD MSTORE SWAP1 MLOAD SWAP1 DUP2 SWAP1 SUB PUSH1 0x84 ADD SWAP1 REVERT JUMPDEST PUSH1 0x1 PUSH1 0xA0 PUSH1 0x2 EXP SUB DUP3 AND PUSH1 0x0 SWAP1 DUP2 MSTORE PUSH1 0xB PUSH1 0x20 MSTORE PUSH1 0x40 SWAP1 KECCAK256 SLOAD DUP7 EQ PUSH2 0x3597 JUMPI PUSH1 0x40 DUP1 MLOAD PUSH1 0xE5 PUSH1 0x2 EXP PUSH3 0x461BCD MUL DUP2 MSTORE PUSH1 0x20 PUSH1 0x4 DUP3 ADD MSTORE PUSH1 0xD PUSH1 0x24 DUP3 ADD MSTORE PUSH32 0x696E636F72726563742073657100000000000000000000000000000000000000 PUSH1 0x44 DUP3 ADD MSTORE SWAP1 MLOAD SWAP1 DUP2 SWAP1 SUB PUSH1 0x64 ADD SWAP1 REVERT JUMPDEST PUSH1 0x1 PUSH1 0xA0 PUSH1 0x2 EXP SUB DUP3 AND PUSH1 0x0 SWAP1 DUP2 MSTORE PUSH1 0xB PUSH1 0x20 MSTORE PUSH1 0x40 SWAP1 KECCAK256 SLOAD PUSH2 0x35C1 SWAP1 PUSH1 0x1 PUSH4 0xFFFFFFFF PUSH2 0x2D46 AND JUMP JUMPDEST PUSH1 0x1 PUSH1 0xA0 PUSH1 0x2 EXP SUB DUP4 AND PUSH1 0x0 SWAP1 DUP2 MSTORE PUSH1 0xB PUSH1 0x20 MSTORE PUSH1 0x40 SWAP1 KECCAK256 SSTORE PUSH2 0x35E5 DUP3 DUP11 DUP11 PUSH2 0x3705 JUMP JUMPDEST SWAP1 POP DUP7 ISZERO PUSH2 0x368C JUMPI PUSH1 0x1 PUSH1 0xA0 PUSH1 0x2 EXP SUB DUP3 AND PUSH1 0x0 SWAP1 DUP2 MSTORE PUSH1 0x1 PUSH1 0x20 MSTORE PUSH1 0x40 SWAP1 KECCAK256 SLOAD PUSH2 0x3616 SWAP1 DUP9 PUSH4 0xFFFFFFFF PUSH2 0x36EE AND JUMP JUMPDEST PUSH1 0x1 PUSH1 0xA0 PUSH1 0x2 EXP SUB DUP4 AND PUSH1 0x0 SWAP1 DUP2 MSTORE PUSH1 0x1 PUSH1 0x20 MSTORE PUSH1 0x40 DUP1 DUP3 KECCAK256 SWAP3 SWAP1 SWAP3 SSTORE CALLER DUP2 MSTORE KECCAK256 SLOAD PUSH2 0x3648 SWAP1 DUP9 PUSH4 0xFFFFFFFF PUSH2 0x2D46 AND JUMP JUMPDEST CALLER PUSH1 0x0 DUP2 DUP2 MSTORE PUSH1 0x1 PUSH1 0x20 SWAP1 DUP2 MSTORE PUSH1 0x40 SWAP2 DUP3 SWAP1 KECCAK256 SWAP4 SWAP1 SWAP4 SSTORE DUP1 MLOAD DUP11 DUP2 MSTORE SWAP1 MLOAD SWAP2 SWAP3 PUSH1 0x1 PUSH1 0xA0 PUSH1 0x2 EXP SUB DUP7 AND SWAP3 PUSH1 0x0 DUP1 MLOAD PUSH1 0x20 PUSH2 0x38DD DUP4 CODECOPY DUP2 MLOAD SWAP2 MSTORE SWAP3 DUP2 SWAP1 SUB SWAP1 SWAP2 ADD SWAP1 LOG3 JUMPDEST PUSH1 0x40 DUP1 MLOAD DUP3 DUP2 MSTORE PUSH1 0x20 DUP2 ADD DUP9 SWAP1 MSTORE DUP1 DUP3 ADD DUP10 SWAP1 MSTORE SWAP1 MLOAD PUSH1 0x1 PUSH1 0xA0 PUSH1 0x2 EXP SUB DUP1 DUP13 AND SWAP3 SWAP1 DUP6 AND SWAP2 PUSH32 0xE526C2818BE85606AB8E0EA3F317C198EF15BAABBB4430BCF2D836EED3C7769B SWAP2 DUP2 SWAP1 SUB PUSH1 0x60 ADD SWAP1 LOG3 POP PUSH1 0x1 SWAP12 SWAP11 POP POP POP POP POP POP POP POP POP POP POP JUMP JUMPDEST PUSH1 0x0 DUP1 DUP4 DUP4 GT ISZERO PUSH2 0x36FE JUMPI PUSH1 0x0 DUP1 REVERT JUMPDEST POP POP SWAP1 SUB SWAP1 JUMP JUMPDEST PUSH1 0x0 DUP1 PUSH1 0x0 PUSH2 0x3713 DUP5 PUSH2 0xDE9 JUMP JUMPDEST SWAP2 POP PUSH2 0x3725 DUP5 DUP4 PUSH4 0xFFFFFFFF PUSH2 0x36EE AND JUMP JUMPDEST PUSH1 0x1 PUSH1 0xA0 PUSH1 0x2 EXP SUB DUP8 AND PUSH1 0x0 SWAP1 DUP2 MSTORE PUSH1 0x1 PUSH1 0x20 MSTORE PUSH1 0x40 SWAP1 KECCAK256 SLOAD SWAP1 SWAP2 POP PUSH2 0x3751 SWAP1 DUP6 PUSH4 0xFFFFFFFF PUSH2 0x36EE AND JUMP JUMPDEST PUSH1 0x1 PUSH1 0xA0 PUSH1 0x2 EXP SUB DUP1 DUP9 AND PUSH1 0x0 SWAP1 DUP2 MSTORE PUSH1 0x1 PUSH1 0x20 MSTORE PUSH1 0x40 DUP1 DUP3 KECCAK256 SWAP4 SWAP1 SWAP4 SSTORE SWAP1 DUP8 AND DUP2 MSTORE KECCAK256 SLOAD PUSH2 0x3786 SWAP1 DUP3 PUSH4 0xFFFFFFFF PUSH2 0x2D46 AND JUMP JUMPDEST PUSH1 0x1 PUSH1 0xA0 PUSH1 0x2 EXP SUB DUP1 DUP8 AND PUSH1 0x0 DUP2 DUP2 MSTORE PUSH1 0x1 PUSH1 0x20 SWAP1 DUP2 MSTORE PUSH1 0x40 SWAP2 DUP3 SWAP1 KECCAK256 SWAP5 SWAP1 SWAP5 SSTORE DUP1 MLOAD DUP6 DUP2 MSTORE SWAP1 MLOAD SWAP2 SWAP4 SWAP3 DUP11 AND SWAP3 PUSH1 0x0 DUP1 MLOAD PUSH1 0x20 PUSH2 0x38DD DUP4 CODECOPY DUP2 MLOAD SWAP2 MSTORE SWAP3 SWAP2 DUP3 SWAP1 SUB ADD SWAP1 LOG3 PUSH1 0xF SLOAD PUSH1 0x40 DUP1 MLOAD DUP5 DUP2 MSTORE SWAP1 MLOAD PUSH1 0x1 PUSH1 0xA0 PUSH1 0x2 EXP SUB SWAP3 DUP4 AND SWAP3 DUP10 AND SWAP2 PUSH1 0x0 DUP1 MLOAD PUSH1 0x20 PUSH2 0x38DD DUP4 CODECOPY DUP2 MLOAD SWAP2 MSTORE SWAP2 SWAP1 DUP2 SWAP1 SUB PUSH1 0x20 ADD SWAP1 LOG3 PUSH1 0x0 DUP3 GT ISZERO PUSH2 0x3893 JUMPI PUSH1 0xF SLOAD PUSH1 0x1 PUSH1 0xA0 PUSH1 0x2 EXP SUB AND PUSH1 0x0 SWAP1 DUP2 MSTORE PUSH1 0x1 PUSH1 0x20 MSTORE PUSH1 0x40 SWAP1 KECCAK256 SLOAD PUSH2 0x3833 SWAP1 DUP4 PUSH4 0xFFFFFFFF PUSH2 0x2D46 AND JUMP JUMPDEST PUSH1 0xF DUP1 SLOAD PUSH1 0x1 PUSH1 0xA0 PUSH1 0x2 EXP SUB SWAP1 DUP2 AND PUSH1 0x0 SWAP1 DUP2 MSTORE PUSH1 0x1 PUSH1 0x20 SWAP1 DUP2 MSTORE PUSH1 0x40 SWAP2 DUP3 SWAP1 KECCAK256 SWAP5 SWAP1 SWAP5 SSTORE SWAP2 SLOAD DUP3 MLOAD DUP7 DUP2 MSTORE SWAP3 MLOAD SWAP1 DUP3 AND SWAP4 SWAP2 DUP11 AND SWAP3 PUSH32 0xF228DE527FC1B9843BAAC03B9A04565473A263375950E63435D4138464386F46 SWAP3 SWAP1 DUP3 SWAP1 SUB ADD SWAP1 LOG3 JUMPDEST SWAP6 SWAP5 POP POP POP POP POP JUMP STOP PUSH2 0x6464 PUSH19 0x6573732066726F7A656E000000000000000000 STOP STOP STOP STOP STOP STOP STOP STOP STOP PUSH24 0x68656E4E6F74506175736564000000000000000000000000 STOP STOP STOP STOP STOP STOP STOP 0xdd CALLCODE MSTORE 0xad SHL 0xe2 0xc8 SWAP12 PUSH10 0xC2B068FC378DAA952BA7 CALL PUSH4 0xC4A11628 0xf5 GAS 0x4d 0xf5 0x23 0xb3 0xef PUSH16 0x6E6C794F776E65720000000000000000 STOP STOP STOP STOP STOP STOP STOP STOP STOP STOP STOP STOP STOP STOP STOP LOG1 PUSH6 0x627A7A723058 KECCAK256 0x4c 0x24 0x24 SLOAD 0xc2 0x5f 0xf6 0xeb 0xd1 CODESIZE MUL 0xf JUMPI 0xa5 EXP 0x1e RETURNDATASIZE PUSH31 0x1E5356163E38F63FD3974D6BF3C20029000000000000000000000000000000 "
		},
		"gasEstimates": {
			"creation": {
				"codeDepositCost": "2932800",
				"executionCost": "infinite",
				"totalCost": "infinite"
			},
			"external": {
				"EIP712_DOMAIN_HASH()": "1352",
				"allowance(address,address)": "1632",
				"approve(address,uint256)": "infinite",
				"assetProtectionRole()": "625",
				"balanceOf(address)": "1090",
				"betaDelegateWhitelister()": "1373",
				"betaDelegatedTransfer(bytes,address,uint256,uint256,uint256,uint256)": "infinite",
				"betaDelegatedTransferBatch(bytes32[],bytes32[],uint8[],address[],uint256[],uint256[],uint256[],uint256[])": "infinite",
				"claimOwnership()": "42963",
				"decimals()": "435",
				"decreaseSupply(uint256)": "infinite",
				"disregardProposeOwner()": "22569",
				"feeController()": "999",
				"feeDecimals()": "1051",
				"feeParts()": "602",
				"feeRate()": "1044",
				"feeRecipient()": "889",
				"freeze(address)": "22982",
				"getFeeFor(uint256)": "infinite",
				"increaseSupply(uint256)": "infinite",
				"initialize()": "infinite",
				"initializeDomainSeparator()": "infinite",
				"isFrozen(address)": "1608",
				"isWhitelistedBetaDelegate(address)": "1344",
				"name()": "infinite",
				"nextSeqOf(address)": "1156",
				"owner()": "1153",
				"pause()": "infinite",
				"paused()": "910",
				"proposeOwner(address)": "infinite",
				"proposedOwner()": "1417",
				"reclaimPAXG()": "infinite",
				"setAssetProtectionRole(address)": "23582",
				"setBetaDelegateWhitelister(address)": "23413",
				"setFeeController(address)": "23112",
				"setFeeRate(uint256)": "22524",
				"setFeeRecipient(address)": "23552",
				"setSupplyController(address)": "23504",
				"supplyController()": "1571",
				"symbol()": "infinite",
				"totalSupply()": "516",
				"transfer(address,uint256)": "infinite",
				"transferFrom(address,address,uint256)": "infinite",
				"unfreeze(address)": "22715",
				"unpause()": "infinite",
				"unwhitelistBetaDelegate(address)": "23287",
				"whitelistBetaDelegate(address)": "23158",
				"wipeFrozenAddress(address)": "infinite"
			},
			"internal": {
				"_betaDelegatedTransfer(bytes32,bytes32,uint8,address,uint256,uint256,uint256,uint256)": "infinite",
				"_transfer(address,address,uint256)": "infinite"
			}
		},
		"methodIdentifiers": {
			"EIP712_DOMAIN_HASH()": "e306f779",
			"allowance(address,address)": "dd62ed3e",
			"approve(address,uint256)": "095ea7b3",
			"assetProtectionRole()": "0a91b601",
			"balanceOf(address)": "70a08231",
			"betaDelegateWhitelister()": "c4f62fee",
			"betaDelegatedTransfer(bytes,address,uint256,uint256,uint256,uint256)": "21ab11f7",
			"betaDelegatedTransferBatch(bytes32[],bytes32[],uint8[],address[],uint256[],uint256[],uint256[],uint256[])": "1b670561",
			"claimOwnership()": "4e71e0c8",
			"decimals()": "313ce567",
			"decreaseSupply(uint256)": "98e52f9a",
			"disregardProposeOwner()": "03acb448",
			"feeController()": "6999b377",
			"feeDecimals()": "cc0f1786",
			"feeParts()": "57526b3f",
			"feeRate()": "978bbdb9",
			"feeRecipient()": "46904840",
			"freeze(address)": "8d1fdf2f",
			"getFeeFor(uint256)": "0abe469a",
			"increaseSupply(uint256)": "b921e163",
			"initialize()": "8129fc1c",
			"initializeDomainSeparator()": "2ff79161",
			"isFrozen(address)": "e5839836",
			"isWhitelistedBetaDelegate(address)": "a7d87ed0",
			"name()": "06fdde03",
			"nextSeqOf(address)": "89f72c21",
			"owner()": "8da5cb5b",
			"pause()": "8456cb59",
			"paused()": "5c975abb",
			"proposeOwner(address)": "b5ed298a",
			"proposedOwner()": "d153b60c",
			"reclaimPAXG()": "08abdeba",
			"setAssetProtectionRole(address)": "8ceed9cb",
			"setBetaDelegateWhitelister(address)": "97d60d56",
			"setFeeController(address)": "3ed4c678",
			"setFeeRate(uint256)": "45596e2e",
			"setFeeRecipient(address)": "e74b981b",
			"setSupplyController(address)": "52875bc3",
			"supplyController()": "e7ba1012",
			"symbol()": "95d89b41",
			"totalSupply()": "18160ddd",
			"transfer(address,uint256)": "a9059cbb",
			"transferFrom(address,address,uint256)": "23b872dd",
			"unfreeze(address)": "45c8b1a6",
			"unpause()": "3f4ba83a",
			"unwhitelistBetaDelegate(address)": "d990c618",
			"whitelistBetaDelegate(address)": "ac69275c",
			"wipeFrozenAddress(address)": "e2f72f03"
		}
	},
	"abi": [
		{
			"constant": false,
			"inputs": [],
			"name": "disregardProposeOwner",
			"outputs": [],
			"payable": false,
			"stateMutability": "nonpayable",
			"type": "function"
		},
		{
			"constant": true,
			"inputs": [],
			"name": "name",
			"outputs": [
				{
					"name": "",
					"type": "string"
				}
			],
			"payable": false,
			"stateMutability": "view",
			"type": "function"
		},
		{
			"constant": false,
			"inputs": [],
			"name": "reclaimPAXG",
			"outputs": [],
			"payable": false,
			"stateMutability": "nonpayable",
			"type": "function"
		},
		{
			"constant": false,
			"inputs": [
				{
					"name": "_spender",
					"type": "address"
				},
				{
					"name": "_value",
					"type": "uint256"
				}
			],
			"name": "approve",
			"outputs": [
				{
					"name": "",
					"type": "bool"
				}
			],
			"payable": false,
			"stateMutability": "nonpayable",
			"type": "function"
		},
		{
			"constant": true,
			"inputs": [],
			"name": "assetProtectionRole",
			"outputs": [
				{
					"name": "",
					"type": "address"
				}
			],
			"payable": false,
			"stateMutability": "view",
			"type": "function"
		},
		{
			"constant": true,
			"inputs": [
				{
					"name": "_value",
					"type": "uint256"
				}
			],
			"name": "getFeeFor",
			"outputs": [
				{
					"name": "",
					"type": "uint256"
				}
			],
			"payable": false,
			"stateMutability": "view",
			"type": "function"
		},
		{
			"constant": true,
			"inputs": [],
			"name": "totalSupply",
			"outputs": [
				{
					"name": "",
					"type": "uint256"
				}
			],
			"payable": false,
			"stateMutability": "view",
			"type": "function"
		},
		{
			"constant": false,
			"inputs": [
				{
					"name": "r",
					"type": "bytes32[]"
				},
				{
					"name": "s",
					"type": "bytes32[]"
				},
				{
					"name": "v",
					"type": "uint8[]"
				},
				{
					"name": "to",
					"type": "address[]"
				},
				{
					"name": "value",
					"type": "uint256[]"
				},
				{
					"name": "serviceFee",
					"type": "uint256[]"
				},
				{
					"name": "seq",
					"type": "uint256[]"
				},
				{
					"name": "deadline",
					"type": "uint256[]"
				}
			],
			"name": "betaDelegatedTransferBatch",
			"outputs": [
				{
					"name": "",
					"type": "bool"
				}
			],
			"payable": false,
			"stateMutability": "nonpayable",
			"type": "function"
		},
		{
			"constant": false,
			"inputs": [
				{
					"name": "sig",
					"type": "bytes"
				},
				{
					"name": "to",
					"type": "address"
				},
				{
					"name": "value",
					"type": "uint256"
				},
				{
					"name": "serviceFee",
					"type": "uint256"
				},
				{
					"name": "seq",
					"type": "uint256"
				},
				{
					"name": "deadline",
					"type": "uint256"
				}
			],
			"name": "betaDelegatedTransfer",
			"outputs": [
				{
					"name": "",
					"type": "bool"
				}
			],
			"payable": false,
			"stateMutability": "nonpayable",
			"type": "function"
		},
		{
			"constant": false,
			"inputs": [
				{
					"name": "_from",
					"type": "address"
				},
				{
					"name": "_to",
					"type": "address"
				},
				{
					"name": "_value",
					"type": "uint256"
				}
			],
			"name": "transferFrom",
			"outputs": [
				{
					"name": "",
					"type": "bool"
				}
			],
			"payable": false,
			"stateMutability": "nonpayable",
			"type": "function"
		},
		{
			"constant": false,
			"inputs": [],
			"name": "initializeDomainSeparator",
			"outputs": [],
			"payable": false,
			"stateMutability": "nonpayable",
			"type": "function"
		},
		{
			"constant": true,
			"inputs": [],
			"name": "decimals",
			"outputs": [
				{
					"name": "",
					"type": "uint8"
				}
			],
			"payable": false,
			"stateMutability": "view",
			"type": "function"
		},
		{
			"constant": false,
			"inputs": [
				{
					"name": "_newFeeController",
					"type": "address"
				}
			],
			"name": "setFeeController",
			"outputs": [],
			"payable": false,
			"stateMutability": "nonpayable",
			"type": "function"
		},
		{
			"constant": false,
			"inputs": [],
			"name": "unpause",
			"outputs": [],
			"payable": false,
			"stateMutability": "nonpayable",
			"type": "function"
		},
		{
			"constant": false,
			"inputs": [
				{
					"name": "_newFeeRate",
					"type": "uint256"
				}
			],
			"name": "setFeeRate",
			"outputs": [],
			"payable": false,
			"stateMutability": "nonpayable",
			"type": "function"
		},
		{
			"constant": false,
			"inputs": [
				{
					"name": "_addr",
					"type": "address"
				}
			],
			"name": "unfreeze",
			"outputs": [],
			"payable": false,
			"stateMutability": "nonpayable",
			"type": "function"
		},
		{
			"constant": true,
			"inputs": [],
			"name": "feeRecipient",
			"outputs": [
				{
					"name": "",
					"type": "address"
				}
			],
			"payable": false,
			"stateMutability": "view",
			"type": "function"
		},
		{
			"constant": false,
			"inputs": [],
			"name": "claimOwnership",
			"outputs": [],
			"payable": false,
			"stateMutability": "nonpayable",
			"type": "function"
		},
		{
			"constant": false,
			"inputs": [
				{
					"name": "_newSupplyController",
					"type": "address"
				}
			],
			"name": "setSupplyController",
			"outputs": [],
			"payable": false,
			"stateMutability": "nonpayable",
			"type": "function"
		},
		{
			"constant": true,
			"inputs": [],
			"name": "feeParts",
			"outputs": [
				{
					"name": "",
					"type": "uint256"
				}
			],
			"payable": false,
			"stateMutability": "view",
			"type": "function"
		},
		{
			"constant": true,
			"inputs": [],
			"name": "paused",
			"outputs": [
				{
					"name": "",
					"type": "bool"
				}
			],
			"payable": false,
			"stateMutability": "view",
			"type": "function"
		},
		{
			"constant": true,
			"inputs": [],
			"name": "feeController",
			"outputs": [
				{
					"name": "",
					"type": "address"
				}
			],
			"payable": false,
			"stateMutability": "view",
			"type": "function"
		},
		{
			"constant": true,
			"inputs": [
				{
					"name": "_addr",
					"type": "address"
				}
			],
			"name": "balanceOf",
			"outputs": [
				{
					"name": "",
					"type": "uint256"
				}
			],
			"payable": false,
			"stateMutability": "view",
			"type": "function"
		},
		{
			"constant": false,
			"inputs": [],
			"name": "initialize",
			"outputs": [],
			"payable": false,
			"stateMutability": "nonpayable",
			"type": "function"
		},
		{
			"constant": false,
			"inputs": [],
			"name": "pause",
			"outputs": [],
			"payable": false,
			"stateMutability": "nonpayable",
			"type": "function"
		},
		{
			"constant": true,
			"inputs": [
				{
					"name": "target",
					"type": "address"
				}
			],
			"name": "nextSeqOf",
			"outputs": [
				{
					"name": "",
					"type": "uint256"
				}
			],
			"payable": false,
			"stateMutability": "view",
			"type": "function"
		},
		{
			"constant": false,
			"inputs": [
				{
					"name": "_newAssetProtectionRole",
					"type": "address"
				}
			],
			"name": "setAssetProtectionRole",
			"outputs": [],
			"payable": false,
			"stateMutability": "nonpayable",
			"type": "function"
		},
		{
			"constant": false,
			"inputs": [
				{
					"name": "_addr",
					"type": "address"
				}
			],
			"name": "freeze",
			"outputs": [],
			"payable": false,
			"stateMutability": "nonpayable",
			"type": "function"
		},
		{
			"constant": true,
			"inputs": [],
			"name": "owner",
			"outputs": [
				{
					"name": "",
					"type": "address"
				}
			],
			"payable": false,
			"stateMutability": "view",
			"type": "function"
		},
		{
			"constant": true,
			"inputs": [],
			"name": "symbol",
			"outputs": [
				{
					"name": "",
					"type": "string"
				}
			],
			"payable": false,
			"stateMutability": "view",
			"type": "function"
		},
		{
			"constant": true,
			"inputs": [],
			"name": "feeRate",
			"outputs": [
				{
					"name": "",
					"type": "uint256"
				}
			],
			"payable": false,
			"stateMutability": "view",
			"type": "function"
		},
		{
			"constant": false,
			"inputs": [
				{
					"name": "_newWhitelister",
					"type": "address"
				}
			],
			"name": "setBetaDelegateWhitelister",
			"outputs": [],
			"payable": false,
			"stateMutability": "nonpayable",
			"type": "function"
		},
		{
			"constant": false,
			"inputs": [
				{
					"name": "_value",
					"type": "uint256"
				}
			],
			"name": "decreaseSupply",
			"outputs": [
				{
					"name": "success",
					"type": "bool"
				}
			],
			"payable": false,
			"stateMutability": "nonpayable",
			"type": "function"
		},
		{
			"constant": true,
			"inputs": [
				{
					"name": "_addr",
					"type": "address"
				}
			],
			"name": "isWhitelistedBetaDelegate",
			"outputs": [
				{
					"name": "",
					"type": "bool"
				}
			],
			"payable": false,
			"stateMutability": "view",
			"type": "function"
		},
		{
			"constant": false,
			"inputs": [
				{
					"name": "_to",
					"type": "address"
				},
				{
					"name": "_value",
					"type": "uint256"
				}
			],
			"name": "transfer",
			"outputs": [
				{
					"name": "",
					"type": "bool"
				}
			],
			"payable": false,
			"stateMutability": "nonpayable",
			"type": "function"
		},
		{
			"constant": false,
			"inputs": [
				{
					"name": "_addr",
					"type": "address"
				}
			],
			"name": "whitelistBetaDelegate",
			"outputs": [],
			"payable": false,
			"stateMutability": "nonpayable",
			"type": "function"
		},
		{
			"constant": false,
			"inputs": [
				{
					"name": "_proposedOwner",
					"type": "address"
				}
			],
			"name": "proposeOwner",
			"outputs": [],
			"payable": false,
			"stateMutability": "nonpayable",
			"type": "function"
		},
		{
			"constant": false,
			"inputs": [
				{
					"name": "_value",
					"type": "uint256"
				}
			],
			"name": "increaseSupply",
			"outputs": [
				{
					"name": "success",
					"type": "bool"
				}
			],
			"payable": false,
			"stateMutability": "nonpayable",
			"type": "function"
		},
		{
			"constant": true,
			"inputs": [],
			"name": "betaDelegateWhitelister",
			"outputs": [
				{
					"name": "",
					"type": "address"
				}
			],
			"payable": false,
			"stateMutability": "view",
			"type": "function"
		},
		{
			"constant": true,
			"inputs": [],
			"name": "feeDecimals",
			"outputs": [
				{
					"name": "",
					"type": "uint8"
				}
			],
			"payable": false,
			"stateMutability": "view",
			"type": "function"
		},
		{
			"constant": true,
			"inputs": [],
			"name": "proposedOwner",
			"outputs": [
				{
					"name": "",
					"type": "address"
				}
			],
			"payable": false,
			"stateMutability": "view",
			"type": "function"
		},
		{
			"constant": false,
			"inputs": [
				{
					"name": "_addr",
					"type": "address"
				}
			],
			"name": "unwhitelistBetaDelegate",
			"outputs": [],
			"payable": false,
			"stateMutability": "nonpayable",
			"type": "function"
		},
		{
			"constant": true,
			"inputs": [
				{
					"name": "_owner",
					"type": "address"
				},
				{
					"name": "_spender",
					"type": "address"
				}
			],
			"name": "allowance",
			"outputs": [
				{
					"name": "",
					"type": "uint256"
				}
			],
			"payable": false,
			"stateMutability": "view",
			"type": "function"
		},
		{
			"constant": false,
			"inputs": [
				{
					"name": "_addr",
					"type": "address"
				}
			],
			"name": "wipeFrozenAddress",
			"outputs": [],
			"payable": false,
			"stateMutability": "nonpayable",
			"type": "function"
		},
		{
			"constant": true,
			"inputs": [],
			"name": "EIP712_DOMAIN_HASH",
			"outputs": [
				{
					"name": "",
					"type": "bytes32"
				}
			],
			"payable": false,
			"stateMutability": "view",
			"type": "function"
		},
		{
			"constant": true,
			"inputs": [
				{
					"name": "_addr",
					"type": "address"
				}
			],
			"name": "isFrozen",
			"outputs": [
				{
					"name": "",
					"type": "bool"
				}
			],
			"payable": false,
			"stateMutability": "view",
			"type": "function"
		},
		{
			"constant": false,
			"inputs": [
				{
					"name": "_newFeeRecipient",
					"type": "address"
				}
			],
			"name": "setFeeRecipient",
			"outputs": [],
			"payable": false,
			"stateMutability": "nonpayable",
			"type": "function"
		},
		{
			"constant": true,
			"inputs": [],
			"name": "supplyController",
			"outputs": [
				{
					"name": "",
					"type": "address"
				}
			],
			"payable": false,
			"stateMutability": "view",
			"type": "function"
		},
		{
			"inputs": [],
			"payable": false,
			"stateMutability": "nonpayable",
			"type": "constructor"
		},
		{
			"anonymous": false,
			"inputs": [
				{
					"indexed": true,
					"name": "from",
					"type": "address"
				},
				{
					"indexed": true,
					"name": "to",
					"type": "address"
				},
				{
					"indexed": false,
					"name": "value",
					"type": "uint256"
				}
			],
			"name": "Transfer",
			"type": "event"
		},
		{
			"anonymous": false,
			"inputs": [
				{
					"indexed": true,
					"name": "owner",
					"type": "address"
				},
				{
					"indexed": true,
					"name": "spender",
					"type": "address"
				},
				{
					"indexed": false,
					"name": "value",
					"type": "uint256"
				}
			],
			"name": "Approval",
			"type": "event"
		},
		{
			"anonymous": false,
			"inputs": [
				{
					"indexed": true,
					"name": "currentOwner",
					"type": "address"
				},
				{
					"indexed": true,
					"name": "proposedOwner",
					"type": "address"
				}
			],
			"name": "OwnershipTransferProposed",
			"type": "event"
		},
		{
			"anonymous": false,
			"inputs": [
				{
					"indexed": true,
					"name": "oldProposedOwner",
					"type": "address"
				}
			],
			"name": "OwnershipTransferDisregarded",
			"type": "event"
		},
		{
			"anonymous": false,
			"inputs": [
				{
					"indexed": true,
					"name": "oldOwner",
					"type": "address"
				},
				{
					"indexed": true,
					"name": "newOwner",
					"type": "address"
				}
			],
			"name": "OwnershipTransferred",
			"type": "event"
		},
		{
			"anonymous": false,
			"inputs": [],
			"name": "Pause",
			"type": "event"
		},
		{
			"anonymous": false,
			"inputs": [],
			"name": "Unpause",
			"type": "event"
		},
		{
			"anonymous": false,
			"inputs": [
				{
					"indexed": true,
					"name": "addr",
					"type": "address"
				}
			],
			"name": "AddressFrozen",
			"type": "event"
		},
		{
			"anonymous": false,
			"inputs": [
				{
					"indexed": true,
					"name": "addr",
					"type": "address"
				}
			],
			"name": "AddressUnfrozen",
			"type": "event"
		},
		{
			"anonymous": false,
			"inputs": [
				{
					"indexed": true,
					"name": "addr",
					"type": "address"
				}
			],
			"name": "FrozenAddressWiped",
			"type": "event"
		},
		{
			"anonymous": false,
			"inputs": [
				{
					"indexed": true,
					"name": "oldAssetProtectionRole",
					"type": "address"
				},
				{
					"indexed": true,
					"name": "newAssetProtectionRole",
					"type": "address"
				}
			],
			"name": "AssetProtectionRoleSet",
			"type": "event"
		},
		{
			"anonymous": false,
			"inputs": [
				{
					"indexed": true,
					"name": "to",
					"type": "address"
				},
				{
					"indexed": false,
					"name": "value",
					"type": "uint256"
				}
			],
			"name": "SupplyIncreased",
			"type": "event"
		},
		{
			"anonymous": false,
			"inputs": [
				{
					"indexed": true,
					"name": "from",
					"type": "address"
				},
				{
					"indexed": false,
					"name": "value",
					"type": "uint256"
				}
			],
			"name": "SupplyDecreased",
			"type": "event"
		},
		{
			"anonymous": false,
			"inputs": [
				{
					"indexed": true,
					"name": "oldSupplyController",
					"type": "address"
				},
				{
					"indexed": true,
					"name": "newSupplyController",
					"type": "address"
				}
			],
			"name": "SupplyControllerSet",
			"type": "event"
		},
		{
			"anonymous": false,
			"inputs": [
				{
					"indexed": true,
					"name": "from",
					"type": "address"
				},
				{
					"indexed": true,
					"name": "to",
					"type": "address"
				},
				{
					"indexed": false,
					"name": "value",
					"type": "uint256"
				},
				{
					"indexed": false,
					"name": "seq",
					"type": "uint256"
				},
				{
					"indexed": false,
					"name": "serviceFee",
					"type": "uint256"
				}
			],
			"name": "BetaDelegatedTransfer",
			"type": "event"
		},
		{
			"anonymous": false,
			"inputs": [
				{
					"indexed": true,
					"name": "oldWhitelister",
					"type": "address"
				},
				{
					"indexed": true,
					"name": "newWhitelister",
					"type": "address"
				}
			],
			"name": "BetaDelegateWhitelisterSet",
			"type": "event"
		},
		{
			"anonymous": false,
			"inputs": [
				{
					"indexed": true,
					"name": "newDelegate",
					"type": "address"
				}
			],
			"name": "BetaDelegateWhitelisted",
			"type": "event"
		},
		{
			"anonymous": false,
			"inputs": [
				{
					"indexed": true,
					"name": "oldDelegate",
					"type": "address"
				}
			],
			"name": "BetaDelegateUnwhitelisted",
			"type": "event"
		},
		{
			"anonymous": false,
			"inputs": [
				{
					"indexed": true,
					"name": "from",
					"type": "address"
				},
				{
					"indexed": true,
					"name": "to",
					"type": "address"
				},
				{
					"indexed": false,
					"name": "value",
					"type": "uint256"
				}
			],
			"name": "FeeCollected",
			"type": "event"
		},
		{
			"anonymous": false,
			"inputs": [
				{
					"indexed": true,
					"name": "oldFeeRate",
					"type": "uint256"
				},
				{
					"indexed": true,
					"name": "newFeeRate",
					"type": "uint256"
				}
			],
			"name": "FeeRateSet",
			"type": "event"
		},
		{
			"anonymous": false,
			"inputs": [
				{
					"indexed": true,
					"name": "oldFeeController",
					"type": "address"
				},
				{
					"indexed": true,
					"name": "newFeeController",
					"type": "address"
				}
			],
			"name": "FeeControllerSet",
			"type": "event"
		},
		{
			"anonymous": false,
			"inputs": [
				{
					"indexed": true,
					"name": "oldFeeRecipient",
					"type": "address"
				},
				{
					"indexed": true,
					"name": "newFeeRecipient",
					"type": "address"
				}
			],
			"name": "FeeRecipientSet",
			"type": "event"
		}
	]
}